:020000040800F2
:1000000000000220C5140308411800084318000826
:1000100045180008471800084918000800000000AB
:100020000000000000000000000000004B18000865
:100030004D180008000000004F1800085118000873
:1000400015150308151503081515030815150308DC
:1000500015150308151503081515030815150308CC
:1000600015150308151503081515030815150308BC
:1000700015150308151503081515030815150308AC
:10008000151503081515030815150308151503089C
:10009000151503081515030815150308151503088C
:1000A000151503081515030815150308151503087C
:1000B000151503081515030815150308151503086C
:1000C000151503081515030815150308151503085C
:1000D0001515030859180008151503081515030808
:1000E0001515030815150308000000001515030871
:1000F000151503081515030815150308151503082C
:1001000069180008151503081515030815150308C7
:10011000151503081515030815150308151503080B
:1001200015150308151503081515030815150308FB
:1001300015150308151503081515030815150308EB
:1001400000000000000000000000000000000000AF
:1001500015150308151503081515030815150308CB
:1001600015150308151503081515030815150308BB
:1001700015150308151503081515030800000000E0
:10018000151503081515030815150308151503089B
:10019000151503081515030815150308151503088B
:1001A000791800088918000899180008151503081F
:1001B000151503081515030815150308151503086B
:1001C000151503081515030815150308151503085B
:1001D000151503081515030815150308151503084B
:1001E000151503081515030815150308151503083B
:1001F000151503081515030815150308151503082B
:10020000151503081515030815150308151503081A
:10021000151503081515030815150308151503080A
:10022000151503081515030815150308000000002F
:10023000151503081515030800000000151503081F
:1002400015150308151503081515030815150308DA
:1002500015150308151503081515030815150308CA
:1002600015150308151503081515030815150308BA
:1002700015150308151503081515030800000000DF
:1002800015150308151503081515030800000000CF
:08029000000000001515030831
:1002980010B5054C237833B9044B13B10448AFF3B8
:1002A80000800123237010BD200200200000000000
:1002B800F81F030808B5034B1BB103490348AFF304
:1002C800008008BD0000000024020020F81F030879
:1002D80010F8012B11F8013B012A28BF9A42F7D0E8
:1002E800D01A7047034613F8012B002AFBD1181ABD
:1002F8000138704753B94AB9002908BF00281CBF04
:100308004FF0FF314FF0FF3000F074B9ADF1080C39
:100318006DE904CE00F006F8DDF804E0DDE902231B
:1003280004B070472DE9F047089D04468E46002B1F
:100338004DD18A42944669D9B2FA82F252B101FA91
:1003480002F3C2F1200120FA01F10CFA02FC41EAA1
:10035800030E94404FEA1C48210CBEFBF8F61FFA26
:100368008CF708FB16E341EA034306FB07F19942C1
:100378000AD91CEB030306F1FF3080F01F81994274
:1003880040F21C81023E63445B1AA4B2B3FBF8F04E
:1003980008FB103344EA034400FB07F7A7420AD9D5
:1003A8001CEB040400F1FF3380F00A81A74240F2FD
:1003B80007816444023840EA0640E41B00261DB168
:1003C800D4400023C5E900433146BDE8F0878B429D
:1003D80009D9002D00F0EF800026C5E9000130465C
:1003E8003146BDE8F087B3FA83F6002E4AD18B4236
:1003F80002D3824200F2F980841A61EB03030120E0
:100408009E46002DE0D0C5E9004EDDE702B9FFDECB
:10041800B2FA82F2002A40F09280A1EB0C014FEA76
:100428001C471FFA8CFE0126200CB1FBF7F307FBD3
:10043800131140EA01410EFB03F0884208D91CEB76
:10044800010103F1FF3802D2884200F2CB80434613
:10045800091AA4B2B1FBF7F007FB101144EA0144F2
:100468000EFB00FEA64508D91CEB040400F1FF3181
:1004780002D2A64500F2BB800846A4EB0E0440EA6F
:1004880003409CE7C6F12007B34022FA07FC4CEA78
:10049800030C20FA07F401FA06F31C43F9404FEA6B
:1004A8001C4900FA06F3B1FBF9F8200C1FFA8CFE80
:1004B80009FB181140EA014108FB0EF0884202FAD4
:1004C80006F20BD91CEB010108F1FF3A80F0888095
:1004D800884240F28580A8F102086144091AA4B252
:1004E800B1FBF9F009FB101144EA014100FB0EFED3
:1004F8008E4508D91CEB010100F1FF346CD28E4502
:100508006AD90238614440EA0840A0FB0294A1EB92
:100518000E01A142C846A64656D353D05DB1B3EBEF
:10052800080261EB0E0101FA07F722FA06F3F1401F
:100538001F43C5E9007100263146BDE8F087C2F1C6
:100548002003D8400CFA02FC21FA03F3914001433E
:100558004FEA1C471FFA8CFEB3FBF7F007FB103677
:100568000B0C43EA064300FB0EF69E4204FA02F423
:1005780008D91CEB030300F1FF382FD29E422DD976
:10058800023863449B1B89B2B3FBF7F607FB1633AB
:1005980041EA034106FB0EF38B4208D91CEB01012B
:1005A80006F1FF3816D28B4214D9023E6144C91AAB
:1005B80046EA004638E72E46284605E70646E3E6BB
:1005C8001846F8E64B45A9D2B9EB020864EB0C0EC5
:1005D8000138A3E74646EAE7204694E74046D1E7D4
:1005E800D0467BE7023B614432E7304609E7644482
:1005F800023842E7704700BF38B504461D4D002257
:100608001021284602F0C0F800222021284602F0D6
:10061800BBF800228021284602F0B6F801222021EA
:10062800284602F0B1F800250DE00022802111488B
:1006380002F0AAF8012220210E4802F0A5F8640071
:10064800E4B20135EDB2072D0DD80022202109486A
:1006580002F09AF814F0800FE7D0012280210548B3
:1006680002F092F8E6E701221021024802F08CF825
:1006780038BD00BF0000025838B504461D4D0022A1
:100688001021284602F080F800222021284602F096
:100698007BF801228021284602F076F801222021E9
:1006A800284602F071F800250DE00022802111484B
:1006B80002F06AF8012220210E4802F065F8640071
:1006C800E4B20135EDB2072D0DD8002220210948EA
:1006D80002F05AF814F0800FE7D001228021054873
:1006E80002F052F8E6E701221021024802F04CF825
:1006F80038BD00BF0000025810B5012001F026FAED
:10070800FD4C00220121204602F03EF80A2001F0AB
:100718001DFA01221146204602F036F8782001F031
:1007280015FAFF20FFF768FF7720FFF7A5FF0120E4
:10073800FFF7A2FF0020FFF79FFF0020FFF79CFFB5
:100748001320FFF799FFEF20FFF756FF0820FFF768
:1007580093FFFF20FFF750FF7720FFF78DFF012061
:10076800FFF78AFF0020FFF787FF0020FFF784FFCD
:100778001020FFF781FFC020FFF73EFF4F20FFF753
:100788007BFF0020FFF778FFC120FFF735FF10201F
:10079800FFF772FF0C20FFF76FFFC220FFF72CFF57
:1007A8000120FFF769FF1420FFF766FFCC20FFF751
:1007B80023FF1020FFF760FFB020FFF71DFF002088
:1007C800FFF75AFF0B20FFF757FF1320FFF754FFDF
:1007D8000D20FFF751FF1020FFF74EFF0720FFF70E
:1007E8004BFF0220FFF748FF0820FFF745FF0720CF
:1007F800FFF742FF1F20FFF73FFF0420FFF73CFFF2
:100808001120FFF739FF0F20FFF736FF2820FFF7E9
:1008180033FF2F20FFF730FF1F20FFF72DFFB120F8
:10082800FFF7EAFE0020FFF727FF0C20FFF724FF61
:100838001320FFF721FF0C20FFF71EFF1020FFF702
:100848001BFF0520FFF718FF0220FFF715FF082000
:10085800FFF712FF0820FFF70FFF1E20FFF70CFF1E
:100868000520FFF709FF1320FFF706FF1120FFF708
:1008780003FF2720FFF700FF3020FFF7FDFE1F20B2
:10088800FFF7FAFEFF20FFF7B7FE7720FFF7F4FE29
:100898000120FFF7F1FE0020FFF7EEFE0020FFF732
:1008A800EBFE1120FFF7E8FEB020FFF7A5FE4D2074
:1008B800FFF7E2FEB120FFF79FFE3D20FFF7DCFEC9
:1008C800B220FFF799FE8720FFF7D6FEB320FFF787
:1008D80093FE8020FFF7D0FEB520FFF78DFE452060
:1008E800FFF7CAFEB720FFF787FE8520FFF7C4FE93
:1008F800B820FFF781FE2020FFF7BEFEC020FFF7DB
:100908007BFE0920FFF7B8FEC120FFF775FE7820AF
:10091800FFF7B2FEC220FFF76FFE7820FFF7ACFEAC
:10092800D020FFF769FE8820FFF7A6FE642001F0BB
:100938000DF9E020FFF760FE0020FFF79DFE002084
:10094800FFF79AFE0220FFF797FEE120FFF754FE1B
:100958000420FFF791FEB020FFF78EFE0620FFF778
:100968008BFEB020FFF788FE0520FFF785FEB0203C
:10097800FFF782FE0720FFF77FFEB020FFF77CFE1F
:100988000020FFF779FE4420FFF776FE4420FFF7AA
:1009980073FEE220FFF730FE2020FFF76DFE2020D7
:1009A800FFF76AFE4420FFF767FE4420FFF764FE66
:1009B8009620FFF761FEA020FFF75EFE0020FFF7FC
:1009C8005BFE0020FFF758FE9620FFF755FEA0209B
:1009D800FFF752FE0020FFF74FFE0020FFF74CFE06
:1009E800E320FFF709FE0020FFF746FE0020FFF78F
:1009F80043FE2220FFF740FE2220FFF73DFEE420C1
:100A0800FFF7FAFD4420FFF737FE4420FFF734FED6
:100A1800E520FFF7F1FD0C20FFF72EFE9020FFF7F1
:100A28002BFEB020FFF728FEA020FFF725FE0E20A2
:100A3800FFF722FE9220FFF71FFEB020FFF71CFEF3
:100A4800A020FFF719FE0820FFF716FE8C20FFF7FD
:100A580013FEB020FFF710FEA020FFF70DFE0A20BE
:100A6800FFF70AFE8E20FFF707FEB020FFF704FE0F
:100A7800A020FFF701FEE620FFF7BEFD0020FFF7EC
:100A8800FBFD0020FFF7F8FD2220FFF7F5FD2220EF
:100A9800FFF7F2FDE720FFF7AFFD4420FFF7ECFD7D
:100AA8004420FFF7E9FDE820FFF7A6FD0D20FFF73A
:100AB800E3FD9120FFF7E0FDB020FFF7DDFDA0206A
:100AC800FFF7DAFD0F20FFF7D7FD9320FFF7D4FDDE
:100AD800B020FFF7D1FDA020FFF7CEFD0920FFF7DA
:100AE800CBFD8D20FFF7C8FDB020FFF7C5FDA02086
:100AF800FFF7C2FD0B2001E000000258FFF7BCFD24
:100B08008F20FFF7B9FDB020FFF7B6FDA020FFF753
:100B1800B3FDE920FFF770FD3620FFF7ADFD00209B
:100B2800FFF7AAFDEB20FFF767FD0020FFF7A4FD04
:100B38000020FFF7A1FDE420FFF79EFDE420FFF76A
:100B48009BFD4420FFF798FD8820FFF795FD402086
:100B5800FFF792FDED20FFF74FFDC120FFF78CFD59
:100B6800A220FFF789FDBF20FFF786FD0F20FFF7C2
:100B780083FD6720FFF780FD4520FFF77DFDFF20FF
:100B8800FFF77AFDFF20FFF777FDFF20FFF774FDE1
:100B9800FF20FFF771FD5420FFF76EFD7620FFF769
:100BA8006BFDF020FFF768FDFB20FFF765FD2A20AD
:100BB800FFF762FD1C20FFF75FFDEF20FFF71CFD2C
:100BC8001020FFF759FD0D20FFF756FD0420FFF711
:100BD80053FD0820FFF750FD3F20FFF74DFD1F2074
:100BE800FFF74AFDFF20FFF707FD7720FFF744FDD9
:100BF8000120FFF741FD0020FFF73EFD0020FFF731
:100C08003BFD1320FFF738FDE820FFF7F5FC002037
:100C1800FFF732FD0E20FFF72FFDFF20FFF7ECFC5A
:100C28007720FFF729FD0120FFF726FD0020FFF7B9
:100C380023FD0020FFF720FD0020FFF71DFD1120F8
:100C4800FFF7DAFC782000F081FFFF20FFF7D4FCE3
:100C58007720FFF711FD0120FFF70EFD0020FFF7B9
:100C68000BFD0020FFF708FD1320FFF705FDE82026
:100C7800FFF7C2FC0020FFF7FFFC0C20FFF7FCFC8D
:100C88000A2000F063FFE820FFF7B6FC0020FFF71A
:100C9800F3FC0020FFF7F0FCFF20FFF7ADFC772006
:100CA800FFF7EAFC0120FFF7E7FC0020FFF7E4FC70
:100CB8000020FFF7E1FC0020FFF7DEFC3A20FFF7F9
:100CC8009BFC7020FFF7D8FC2920FFF795FC322009
:100CD80000F03CFF014830F0B5FC10BD28200308A7
:100CE80008B50E480E4B0360002343608360C36061
:100CF80043648364C364036543658365C36501F026
:100D0800CFFA28B90121054801F0ACFB18B908BD94
:100D180000F08DFCF6E700F08AFCF8E73C020020C2
:100D28000010005202680F4B9A4200D0704700B57D
:100D380083B00D4BD3F8D42042F01002C3F8D4206E
:100D4800D3F8D43003F010030193019B002211461D
:100D58005A2000F027FF5A2000F05AFF03B05DF830
:100D680004FB00BF0010005200440258F0B5B9B0AF
:100D7800002333933493359336933793344B1B685E
:100D88000BB139B0F0BD324B01221A60C0220021EC
:100D980002A830F0E1FB4FF080720023CDE9022376
:100DA80002A802F049FE00284FD12A4BD3F8D420DC
:100DB80042F48052C3F8D420D3F8D43003F48053DB
:100DC8000193019B4FF63F03339302273497002486
:100DD8003594032636960C25379533A91E4801F01D
:100DE800C3FB2C233393349735943696379533A920
:100DF8001A4801F0B9FB48F2371333933497359406
:100E08003696379533A9164801F0AEFB4FF6837333
:100E18003393349735943696379533A9114801F0B2
:100E2800A3FB4CF203733393349735943696379576
:100E380033A90D4801F098FB22462146302000F0E6
:100E4800B1FE302000F0E4FE9BE700F0F0FBACE7D9
:100E5800A40200200044025800140258001C025842
:100E68000018025800100258000C02582DE9F041F1
:100E780082B005460C464FF00008CDF804800126E4
:100E88000E6010274F608E60C1F80C804FF48052BE
:100E980003F05BFD304600F059FE022323606760D3
:100EA800A660C4F80C804FF480522146284603F00F
:100EB8004CFD0323236067600823A360C4F80C80FB
:100EC8004FF480522146284603F03FFD40F231237B
:100ED8000193042323606760A660019BE3604FF4DD
:100EE80080522146284603F030FD40F296312846CC
:100EF80003F04CFD02B0BDE8F081000000B589B0F8
:100F08000023019302930393049305930693079395
:100F18001C481D4A02604360012282600822C260A8
:100F280010220261402242614FF4C0728261C361A3
:100F38004FF4006303624FF4805343624FF400534D
:100F480083620223019307220292042103910492EF
:100F58000322059206930793694403F0BDFC68B920
:100F68000A490848FFF782FF01221021084801F0CA
:100F78000BFCFFF7C1FB09B05DF804FB00F057FB61
:100F8800EEE700BFB802002040410052A80200204E
:100F98000000025808B5FFF7E9FE08BD2DE9F04149
:100FA8008CB000240794089409940A940B94454B38
:100FB800D3F8E02042F01002C3F8E020D3F8E02094
:100FC80002F010020092009AD3F8E02042F48072F6
:100FD800C3F8E020D3F8E02002F480720192019A6D
:100FE800D3F8E02042F02002C3F8E020D3F8E02054
:100FF80002F020020292029AD3F8E02042F0800226
:10100800C3F8E020D3F8E02002F080020392039AAC
:10101800D3F8E02042F00102C3F8E020D3F8E02042
:1010280002F001020492049AD3F8E02042F0400250
:10103800C3F8E020D3F8E02002F040020592059AB8
:10104800D3F8E02042F00802C3F8E020D3F8E030FB
:1010580003F008030693069B1B4D2246B121284640
:1010680001F092FB194F22464021384601F08CFBD3
:101078003123079301260896099402230A9307A9A6
:10108800284601F071FA4FF04008CDF81C8008940A
:10109800099407A9284601F067FA80230793089660
:1010A80009940A9407A9284601F05EFACDF81C8035
:1010B800089609940A9407A9384601F055FA0CB025
:1010C800BDE8F0810044025800000258001C025894
:1010D800044B4FF04042DA6000229A600421997470
:1010E8001A747047EC020020214B9B68022B06D033
:1010F800032B13D0042B28D01D4B18607047C0F366
:101108000F2303F47843C0F34F1202F4FC62C0F3D8
:10111800C40013430343164A1360704710F07F4F0F
:1011280010D10022C0F34F2101F4F841C0F38F130E
:1011380003F47873C0F3C4000A43134303430C4A0F
:10114800136070474FF40042ECE70A4A02EA104283
:10115800C0F30F3101F47061C0F30F2303F0F00303
:10116800C0F303100A4313430343014A1360704753
:10117800EC02002000F0FFFF214B9B68022B06D0F9
:10118800032B13D0042B28D01D4B58607047C0F395
:101198000F2303F47843C0F34F1202F4FC62C0F348
:1011A800C40013430343164A5360704710F07F4F3F
:1011B80010D10022C0F34F2101F4F841C0F38F137E
:1011C80003F47873C0F3C4000A43134303430C4A7F
:1011D800536070474FF40042ECE70A4A02EA1042B3
:1011E800C0F30F3101F47061C0F30F2303F0F00373
:1011F800C0F303100A4313430343014A5360704783
:10120800EC02002000F0FFFF014B1860704700BFA0
:1012180000030020014B5874704700BFEC02002007
:10122800104B1A6822F001021A604FF440321A601B
:101238000D4A9168596300211964D168D9630B4933
:10124800596452689A630A4B9B6C012BFBD1054A7F
:10125800136843F001031360024B1B6813F0010F7E
:10126800FAD1704700100052EC0200208002E00121
:1012780000100050014BD874704700BFEC020020EA
:1012880010B58EB03422002101A830F065F9454B25
:10129800D3F8D42042F01002C3F8D420D3F8D430C5
:1012A80003F010030093009B3F48404B036000236A
:1012B80043608360C36003610122426182610F223F
:1012C800C2610B22026240F2EF12426240F28B22AC
:1012D800826240F2F712C26240F29322026380F8FF
:1012E800343080F8353080F8363001F02FFB002894
:1012F80051D1002201924FF4F071029103924FF400
:10130800207304930592FF20069007924FF48060A3
:101318000890052009904FF040400A900B910C93DB
:101328008DF834208DF835208DF8362001A91E4817
:1013380001F0F6FB90BB1C4C204601F025FC002177
:10134800204601F03BFC00220E21582000F02AFC28
:10135800582000F05DFC0020FFF75CFF1448FFF701
:1013680053FF0120FFF786FF0020FFF7B1FE6FF063
:10137800FF00FFF701FF4FF0FF30FFF7B5FEFFF763
:101388004FFF642000F0E2FB01224021094801F0F0
:10139800FBF90EB010BD00F04AF9AAE700F047F9D2
:1013A800C9E700BF004402580403002000100050A1
:1013B80000000020001C02582DE9F041BEB0044690
:1013C800002139913A913B913C913D91C02208A866
:1013D80030F0C2F82268774B9A4202D03EB0BDE89E
:1013E800F0814FF000520023CDE908230523129322
:1013F80064231393022314931593192316934FF41C
:101408000063179308A802F017FB002840F0CE806D
:10141800694BD3F8E42042F00802C3F8E420D3F87B
:10142800E42002F008020092009AD3F8E02042F08B
:101438001002C3F8E020D3F8E02002F01002019275
:10144800019AD3F8E02042F48072C3F8E020D3F880
:10145800E02002F480720292029AD3F8E02042F06F
:101468002002C3F8E020D3F8E02002F02002039223
:10147800039AD3F8E02042F00102C3F8E020D3F841
:10148800E02002F001020492049AD3F8E02042F02E
:101498008002C3F8E020D3F8E02002F08002059231
:1014A800059AD3F8E02042F04002C3F8E020D3F8D0
:1014B800E02002F040020692069AD3F8E02042F0BB
:1014C8000802C3F8E020D3F8E03003F008030793DC
:1014D800079B6023399302263A9600243B94032500
:1014E8003C950E273D9739A9344801F03DF840F264
:1014F800F76339933A963B943C953D9739A9304820
:1015080001F032F84FF4806339933A963B943C9556
:101518003D9739A92B4801F027F8042339933A96C7
:101528003B943C953D97DFF8AC8039A9404601F0E3
:101538001BF84FF47F4339933A963B943C953D977B
:1015480039A9214801F010F847F2C00339933A96B7
:101558003B943C953D9739A91C4801F005F84FF498
:10156800807339933A963B943C950D233D9339A962
:10157800404600F0F9FF402339933A963B943C9556
:101588003D9739A9124800F0EFFF2246214658201E
:1015980000F008FB582000F03BFB2246214659206A
:1015A80000F000FB592000F033FB17E700F03FF88C
:1015B8002EE700BF001000500044025800100258E7
:1015C8000020025800140258001C02580018025843
:1015D800000C02580000025810B584B00024009492
:1015E80001940294039400F035FB01238DF8003038
:1015F8008DF801404FF04043019318238DF80830CF
:101608008DF809408DF80A4003238DF80B308DF8CA
:101618000C408DF80D408DF80E408DF80F4068464F
:1016280000F036FB042000F023FB04B010BD72B6B6
:10163800FEE7000000B59FB04C2200210BA82FF058
:101648008BFF2022002103A82FF086FF022001F043
:10165800D9FA00230093394BDA6A22F00102DA62E0
:10166800DB6A03F001030093354B9A6942F4404268
:101678009A619B6903F440430093009B304B9B693C
:1016880013F4005FFAD02F4BD3F8F42042F0020293
:10169800C3F8F420D3F8F43003F002030193019B5C
:1016A80000230293264B9A6942F440429A619B694F
:1016B80003F440430293214BDA6A42F00102DA62F2
:1016C800DB6A03F001030293029B1D4B9B6913F431
:1016D800005FFAD001230B934FF480330C9302235D
:1016E8001493159305221692C022179218931993F2
:1016F8001A9308231B9300231C931D930BA801F036
:10170800ABFAB0B93F230393032304930023059353
:10171800082306934023079308934FF480620992A5
:101728000A93042103A801F0EBFE20B91FB05DF86D
:1017380004FBFFF77CFFFFF77AFF00BF00040058A7
:10174800004802580044025808B5FFF745FF304BDF
:101758005B6913F4003F13D1BFF34F8FBFF36F8F53
:101768002B4B0022C3F85022BFF34F8FBFF36F8F6C
:101778005A6942F400325A61BFF34F8FBFF36F8F3B
:10178800234B5B6913F4803F27D1214B0022C3F818
:101798008420BFF34F8FD3F88040C4F34E3000E06D
:1017A8001846C4F3C90243F6E07303EA401343EA58
:1017B80082731749C1F860321346013A002BF2D1FF
:1017C800431E0028ECD1BFF34F8F4B6943F480339D
:1017D8004B61BFF34F8FBFF36F8F00F077F9FFF7BF
:1017E80029FFFFF7DBFB00F0C1F8FFF787FBFFF7E6
:1017F80077FAFFF745FD06F039FE05F02BFD04F0FA
:101808008DF825F035FD142000F0A0F9F9E700BFA8
:1018180000ED00E082B0074BD3F8F42042F002025A
:10182800C3F8F420D3F8F43003F002030193019BCA
:1018380002B0704700440258FEE7FEE7FEE7FEE705
:10184800FEE770477047704708B500F06DF908BDAE
:1018580008B5024803F000F908BD00BFAC0300203A
:1018680008B5024803F061F808BD00BFB8020020BF
:1018780008B5024801F0E7F808BD00BF04030020DE
:1018880008B5024801F0DFF808BD00BF04030020D6
:1018980008B5024800F048FD08BD00BF3C02002022
:1018A800274AD2F8883043F47003C2F88830254BB1
:1018B8001B6803F00F03062B06D8224A136823F08F
:1018C8000F0343F0070313601F4B1A6842F001022D
:1018D8001A6000221A6119681C4A0A401A60194BDA
:1018E8001B6813F0080F06D0164A136823F00F037D
:1018F80043F007031360144B00229A61DA611A62FD
:10190800134999621349D962134919635A63996350
:10191800DA6319645A64196821F4802119601A6617
:101928000E4B1A680E4B1340B3F1005F03D20D4BF8
:101938000122C3F808210C4B43F2D2021A60704707
:1019480000ED00E000200052004402587FEDF6EA66
:10195800000202020000FF01800201010010005C89
:101968000000FFFF008000510040005208B51748F2
:10197800174B03604FF4E133436000238360C36077
:1019880003610C2242618361C36103624362836223
:1019980003F04FFE70B900210C4803F0C5FE60B992
:1019A80000210A4803F0E5FE50B9084803F09DFEFF
:1019B80048B908BDFFF73BFEEDE7FFF738FEEFE754
:1019C800FFF735FEF1E7FFF732FEF2E7AC03002040
:1019D8000010014010B5B8B004460021339134918D
:1019E800359136913791C02202A82FF0B5FD2268B3
:1019F8001F4B9A4201D038B010BD01220023CDE917
:101A0800022302A802F018F878BB1A4BD3F8F0208A
:101A180042F01002C3F8F020D3F8F02002F01002D0
:101A28000092009AD3F8E02042F00102C3F8E020C7
:101A3800D3F8E03003F001030193019B4FF4C06336
:101A48003393022334930024359436940723379331
:101A580033A9094800F088FD22462146252000F0D8
:101A6800A1F8252000F0D4F8C5E7FFF7E0FDCCE7A2
:101A7800001001400044025800000258104B1B7827
:101A88000BB90120704710B504464FF47A70B0FBCB
:101A9800F3F30C4A1068B0FBF3F000F0C7F868B92C
:101AA8000F2C01D901200AE0002221464FF0FF3017
:101AB80000F078F8044B1C60002000E0012010BD05
:101AC800140000200C0000201800002010B503208E
:101AD80000F056F801F01AFC0F498B69C3F3032391
:101AE8000E4AD35C03F01F03D8408B6903F00F0341
:101AF800D35C03F01F0320FA03F3094A1360094B70
:101B080018600F20FFF7BAFF10B10124204610BD5E
:101B18000446FFF77FFEF9E700440258083203083D
:101B2800100000200C000020034B1B78034A1168AA
:101B38000B441360704700BF1400002040040020CD
:101B4800014B1868704700BF4004002038B50446B0
:101B5800FFF7F6FF0546B4F1FF3F02D0044B1B78B0
:101B68001C44FFF7EDFF401BA042FAD338BD00BF6D
:101B780014000020014B1868000C70470010005C2E
:101B88000649CB6823F4E0631B041B0C000200F435
:101B9800E0600343024A1A43CA60704700ED00E060
:101BA8000000FA0500B5174BDB68C3F30223C3F145
:101BB800070CBCF1040F28BF4FF0040C03F1040E0E
:101BC800BEF1060F14D9033B4FF0FF3E0EFA0CFC92
:101BD80021EA0C0199400EFA03F322EA03031943A0
:101BE800002807DB0901C9B2074B19545DF804FB4B
:101BF8000023E9E700F00F000901C9B2034B1954AB
:101C0800F4E700BF00ED00E000E400E014ED00E0C0
:101C1800002807DB00F01F02400901239340024A15
:101C280042F82030704700BF00E100E00138B0F111
:101C3800807F0BD24FF0E0235861054AF02182F8EB
:101C480023100020986107221A617047012070470D
:101C580000ED00E0BFF35F8F044B5A6A22F4803234
:101C68005A620022C3F89420704700BF00ED00E0DC
:101C780040F00100054BC3F894005A6A42F48032E0
:101C88005A62BFF34F8FBFF36F8F704700ED00E0CC
:101C98004278164BC3F898200378FBB14368134A7F
:101CA800C2F89C30017BC37A1B0643EA0173817A30
:101CB80043EAC143417B43EA8143817B43EA414391
:101CC800C17B43EA0143417A43EA0123017A43EAAB
:101CD800410301780B43C2F8A0307047034B002240
:101CE800C3F89C20C3F8A020704700BF00ED00E0B7
:101CF80070B50446FFF724FF002C00F091810546DB
:101D080094F83530DBB2022B06D0802363650023BC
:101D180084F83430012070BD23688C498C4A934282
:101D280018BF8B4230D0183293422DD018329342CC
:101D38002AD01832934227D01832934224D018322E
:101D4800934221D0183293421ED002F55672934224
:101D58001AD01832934217D01832934214D018323E
:101D6800934211D0183293420ED0183293420BD0BE
:101D78001832934208D01832934205D01A6822F0DC
:101D88000E021A60266809E01A6822F01E021A601C
:101D98002268536923F080035361266823686B49DE
:101DA8006B4A934218BF8B4242D0183293423FD0BD
:101DB800183293423CD01832934239D018329342A9
:101DC80036D01832934233D01832934230D002F5CD
:101DD800567293422CD01832934229D0183293422B
:101DE80026D01832934223D01832934220D018328A
:101DF80093421DD0183293421AD01832934217D00A
:101E0800544A934214D01432934211D0143293425C
:101E18000ED0143293420BD01432934208D01432AD
:101E2800934205D01432934202D01432934204D123
:101E3800226E136823F48073136023684349444A6D
:101E4800934218BF8B422FD0183293422CD01832AD
:101E5800934229D01832934226D01832934223D085
:101E68001832934220D0183293421DD002F5567290
:101E7800934219D01832934216D01832934213D095
:101E88001832934210D0183293420DD01832934230
:101E98000AD01832934207D01832934204D01A68F5
:101EA80022F001021A6003E01A6822F001021A60A7
:101EB800336813F0010F0ED0FFF742FE431B052BCA
:101EC800F6D920236365032384F83530002384F88A
:101ED800343001201FE723681C491D4A934218BF6C
:101EE8008B4239D01832934236D01832934233D0CD
:101EF8001832934230D0183293422DD01832934280
:101F08002AD01832934227D002F55672934223D032
:101F18001832934220D0183293421DD0183293427F
:101F28001AD01832934217D01832934214D018326C
:101F3800934211D0183293420ED0A16DE36D03F095
:101F48001F02012393404B600DE000BF10000240C8
:101F58002800024008540258A16DE36D03F01F02E7
:101F68003F2393408B6023682E492F4A934218BF22
:101F78008B4242D0183293423FD0183293423CD021
:101F88001832934239D01832934236D018329342DD
:101F980033D01832934230D002F5567293422CD087
:101FA8001832934229D01832934226D018329342DD
:101FB80023D01832934220D0183293421DD01832C1
:101FC80093421AD01832934217D0184A934214D029
:101FD8001432934211D0143293420ED014329342E9
:101FE8000BD01432934208D01432934205D01432E5
:101FF800934202D0143293420BD1636EA26E5A60A0
:10200800E36E33B11A6822F480721A60236F626F2C
:102018005A60012384F83530002084F834007AE6C9
:10202800012078E6100002402800024008540258B7
:10203800002800F0298108B5024690F83530DBB257
:10204800022B03D080234365012008BD0368904814
:1020580090498B4218BF83420CBF0121002166D0F2
:102068003030834263D01830834260D018308342C6
:102078005DD0183083425AD01830834257D0183078
:10208800834254D000F55670834250D018308342B2
:102098004DD0183083424AD01830834247D0183088
:1020A800834244D01830834241D0183083423ED016
:1020B800183083423BD0196821F00E01196013686B
:1020C800A0F5956073498B4218BF83426AD0724964
:1020D8008B4267D018318B4264D018318B4261D063
:1020E80018318B425ED018318B425BD018318B424D
:1020F80058D001F556718B4254D018318B4251D0CB
:1021080018318B424ED018318B424BD018318B424C
:1021180048D018318B4245D018318B4242D0183103
:102128008B423FD0196821F0010119603EE004207C
:1021380082F8350081BB584A93422DD01832934219
:102148002AD01832934227D01832934224D018321A
:10215800934221D0183293421ED002F55672934210
:102168001AD01832934217D01832934214D018322A
:10217800934211D0183293420ED0183293420BD0AA
:102188001832934208D01832934205D01A6822F0C8
:1021980001021A60002058E71A6822F001021A604A
:1021A800002052E7196821F00101196013683848C6
:1021B80038498B4218BF834242D018318B423FD0F6
:1021C80018318B423CD018318B4239D018318B42B0
:1021D80036D018318B4233D018318B4230D001F5CC
:1021E80056718B422CD018318B4229D018318B4232
:1021F80026D018318B4223D018318B4220D0183189
:102208008B421DD018318B421AD018318B4217D00F
:1022180022498B4214D014318B4211D014318B4295
:102228000ED014318B420BD014318B4208D01431AC
:102238008B4205D014318B4202D014318B4217D116
:10224800116E0B6823F480730B60906DD36D03F0EF
:102258001F0101238B404360536E916E5960D36E0A
:1022680033B1196821F480711960136F516F596087
:10227800012382F83530002382F83430136D2BB1F6
:10228800104698470020E0E6012070470020DCE671
:102298001000024028000240400002400854025842
:1022A800002837D010B5044690F86130002B2CD0A8
:1022B800022384F8613021680A68174B134062686A
:1022C800E069024313430B6021684A6B134B1340C8
:1022D800A268A069024313434B632268116C104B38
:1022E8000B40E1680B43136421684B6B23F44013E4
:1022F80020696269520542EA005213434B63002089
:102308006066012384F8613010BD80F86030FEF704
:1023180009FDCDE701207047BFFFF8FFF8FEFFFF7A
:102328000000FFFF7047704770B5044603685D689A
:102338001E6815F0010F16D016F4807F13D01A68A6
:1023480022F480721A60436E43F001034366036807
:1023580001229A60042380F86130002380F86030FD
:10236800436A03B1984715F0200F18D016F4005FA0
:1023780015D02268136823F40053136023682022C1
:102388009A60636E43F002036366042384F8613045
:10239800002384F86030636A0BB12046984715F033
:1023A800080F18D016F4006F15D02268136823F4AC
:1023B80000631360236808229A60636E43F0040385
:1023C8006366042384F86130002384F86030636A0C
:1023D8000BB12046984715F0040F02D016F4806F11
:1023E80020D115F0020F16D016F4007F13D0226802
:1023F800136823F400731360236802229A60636EE3
:102408006366012384F86130002384F86030236A0E
:102418000BB12046984715F0100F02D016F4805FD4
:102428000CD170BD2268136823F48063136023689D
:1024380004229A602046FFF775FFD2E722681368E6
:1024480023F480531360236810229A60636E6366D6
:10245800012384F86130002384F860302046FFF7B8
:1024680062FFDEE790F86030012B74D030B40123AE
:1024780080F86030022380F86130C1EBC10200EBC4
:102488008202D46A136B44EA0343956B43EA05530B
:10249800D26B43EA4253A4F10902012A21D9C1EBC4
:1024A800C10200EB8202526B43EA026361BB04681B
:1024B800656A2A4A2A40134363620268C1EBC10372
:1024C80000EB83039C6A9461DB6A093B012B11D9F9
:1024D800012380F86130002380F86030184630BC52
:1024E8007047C1EBC10200EB8202526B02F07F42DF
:1024F8001343DBE7C1EBC10100EB81014B6B0268C1
:1025080023F07F439362E3E70B2C1BD0144D046840
:10251800E26922EA05021343E3610268C1EBC103E1
:1025280000EB83039C6A1461DB6A093B012BCFD85B
:10253800C1EBC10100EB81014B6B026823F07F43C3
:102548001362C5E7C1EBC10200EB8202126C43EAD9
:102558008243044DDBE70220704700BFF0FFCC0048
:102568000F0033FF0F003FFFF0B583B000236BE08F
:1025780085685E000324B44025EA0405CC68B440AD
:102588002C438460446824EA0C0C4C68C4F300149F
:102598009C4044EA0C04446068E0DD08083550F8C3
:1025A800256003F007044FEA840C0F2404FA0CF4A6
:1025B80026EA040E0C6904FA0CF444EA0E0440F806
:1025C80025406BE0092400E0002404FA0EF42C43B3
:1025D8000CF1020C694D45F82C404FF0B0442568C9
:1025E800D44325EA02064F6817F4801F01D042EA57
:1025F80005064FF0B0452E606D6804EA05064F6881
:1026080017F4001F01D042EA05064FF0B0456E608E
:10261800D5F8845004EA05064F6817F4003F01D046
:1026280042EA05064FF0B045C5F88460D5F88050F9
:102638002C404E6816F4803F01D042EA05044FF062
:10264800B042C2F8804001330A6832FA03F400F05D
:1026580092804FF0010C0CFA03FC1CEA0202F2D043
:102668004C6804F00304013C012C81D94C6804F047
:102678000304032C0CD0C4685D004FF0030C0CFA63
:1026880005FC24EA0C0C8C68AC4044EA0C04C460D9
:102698004C6804F00304022C3FF47FAF04684FEA4F
:1026A800430E4FF0030C0CFA0EFC24EA0C0C4C6899
:1026B80004F0030404FA0EF444EA0C0404604C68C1
:1026C80014F4403FBFD02E4CD4F8F45045F0020526
:1026D800C4F8F450D4F8F44004F002040194019CC6
:1026E8004FEA930C0CF10205244C54F8255003F0E2
:1026F80003044FEA840E0F2404FA0EF425EA0405B5
:10270800204CA0423FF460AF04F58064A04222D080
:1027180004F58064A04220D004F58064A0421ED055
:1027280004F58064A0421CD004F58064A0421AD04D
:1027380004F58064A04218D004F58064A04216D045
:1027480004F58064A04214D004F58064A0423FF4EC
:1027580039AF0A2439E7012437E7022435E703248F
:1027680033E7042431E705242FE706242DE707245F
:102778002BE7082429E703B0F0BD00BF0004005888
:1027880000440258000002580AB1816170470904E8
:1027980081617047F0B54D680468E368C3F30B4383
:1027A8001D444FEAC21C04EBC214D4F8883003F469
:1027B8007043C4F888300B680468E668C6F30B46B3
:1027C8003344013304EBC21443EA0543C4F88830A8
:1027D800CD680468E368C3F30A031D4404EBC21E12
:1027E800DEF88C3003F47043CEF88C308B680468C4
:1027F800E668C6F30A0E7344013304EBC21443EAD5
:102808000543C4F88C30036803EBC213D3F8944033
:1028180024F00704C3F89440036803EBC2130C695F
:10282800C3F8944091F8317091F832608D6904686A
:1028380004EBC21404F1840ED4F89C300024CEF8C2
:10284800184091F8303043EA072343EA0643066804
:1028580006EBC21E43EA0563CEF89C300EF1840EE7
:10286800036803EBC213D3F8985025F0FF05C3F8AB
:102878009850036803EBC2134D69C3F89850036876
:1028880003EBC213D3F8A0602E4D3540C3F8A05017
:102898000D6A036803EBC213CE693543C3F8A05031
:1028A800036803EBC213D3F8AC50C3F8AC40036819
:1028B80003EBC2124B6AC2F8AC300B696BB1012B47
:1028C80039D0022B18BF042B37D0032B37D0072B56
:1028D80001D0012502E0022500E0042502686244D7
:1028E800D2F8B04004F0E024C2F8B0408A6A05FB90
:1028F80002F44B680A689B1A05FB03F30733026866
:10290800624443EA0443C2F8B03003686344D3F82E
:10291800B4400D4A2240C3F8B42003686344CA6A2D
:10292800C3F8B42003689C44DCF8843043F0010306
:10293800CCF88430F0BD0325D0E70225CEE7022588
:10294800CCE700BFF8F8FFFF00F8FFFF002872D0BF
:1029580038B5044690F8A130002B67D0022384F8DC
:10296800A1302268936923F07043936121688A69D2
:102978006368A0680343E068034320690343134383
:102988008B6121688A682D4B1A408A6020688268AA
:10299800A169656941EA05410A4382602168CA68FC
:1029A8001A40CA602068C268216AE56941EA05419F
:1029B8000A43C26021680A691A400A6120680269EC
:1029C800A16A656A41EA05410A43026121684A69C8
:1029D80013404B61E06A21684B69226B42EA00426E
:1029E80013434B6194F8350094F836301B04216882
:1029F800CA6A02F07F42CA622168CA6A43EA0023AF
:102A080094F8340003431343CB622268536B43F0BA
:102A1800060353632268936943F00103936100201E
:102A2800C4F8A400012384F8A13038BD80F8A03090
:102A3800FEF7C2FC92E70120704700BF00F800F0E3
:102A480070477047704770B5044603689D6B5E6BAE
:102A580015F0040F02D016F0040F12D115F0020F72
:102A680002D016F0020F21D115F0010F02D016F096
:102A7800010F32D115F0080F02D016F0080F3DD122
:102A880070BD5A6B22F004025A6303680422DA63A9
:102A9800D0F8A43043F00103C0F8A43080F8A12096
:102AA800002380F8A030FFF7CBFFD7E72268536BED
:102AB80023F00203536323680222DA63D4F8A430B4
:102AC8001343C4F8A430042384F8A130002384F805
:102AD800A0302046FFF7B4FFC6E72268536B23F007
:102AE8000103536322680123D36384F8A1300023D0
:102AF80084F8A0302046FFF7A4FFBBE72268536B99
:102B080023F00803536323680822DA63012384F857
:102B1800A130002384F8A0302046FFF793FFAFE7E9
:102B2800F8B590F8A030012B2CD004460D46164677
:102B3800012780F8A070022380F8A1304FF0340CF0
:102B48000CFB020C0CF1380C8E46BEE80F00ACE80A
:102B58000F00BEE80F00ACE80F00BEE80F00ACE8BD
:102B68000F00DEF80030CCF8003032462946204607
:102B7800FFF710FE23685F6284F8A170002084F8D4
:102B8800A000F8BD0220FCE790F8A030012B11D07E
:102B9800012280F8A020022380F8A13006498B6921
:102BA80043F480338B6180F8A120002380F8A030A3
:102BB80018467047022070470010005090F8A03067
:102BC800012B1AD010B4012280F8A020022380F82B
:102BD800A1300468636B23F001036363084B196435
:102BE80001684B6B13434B6380F8A120002380F8E6
:102BF800A03018465DF8044B70470220704700BFAC
:102C080000100050134BDB6813F0040F07D1114B71
:102C1800DB6803F0070383421AD00120704710B520
:102C28000C4AD36823F007031843D060FEF788FFE7
:102C38000446084B5B6813F4005F07D1FEF780FF7A
:102C4800001BB0F57A7FF4D9012000E0002010BD08
:102C58000020704700480258002800F0398338B532
:102C68000446036813F0010F25D0944A136903F052
:102C78003803926A102B15D0182B0FD06368B3F560
:102C8800803F3FD0002B53D18C4B1A6822F48032FE
:102C98001A601A6822F480221A6038E002F00302EF
:102CA800022AEBD1854B1B6813F4003F03D06368FD
:102CB800002B00F00F83236813F0020F00F0A180AF
:102CC8007E4A1369926A13F038035AD0182B55D0EC
:102CD800E368002B00F0DE8078490A6822F01902C8
:102CE80013430B60FEF72CFF0546744B1B6813F06B
:102CF800040F40F0AD80FEF723FF401B0228F4D9F3
:102D08000320EEE26D4A136843F48033136063686E
:102D18002BB3FEF715FF0546684B1B6813F4003FFD
:102D2800C9D1FEF70DFF401B6428F5D90320D8E26E
:102D3800B3F5A02F09D0614B1A6822F480321A60CB
:102D48001A6822F480221A60E1E75C4B1A6842F4A0
:102D580080221A601A6842F480321A60D7E7FEF7B8
:102D6800EFFE0546554B1B6813F4003FA3D0FEF752
:102D7800E7FE401B6428F5D90320B2E212F0030FE6
:102D8800A6D14E4B1B6813F0040F03D0E368002B49
:102D980000F0A282494A136823F01903E1680B4343
:102DA8001360FEF7CDFE0546444B1B6813F0040F75
:102DB80006D1FEF7C5FE401B0228F5D9032090E294
:102DC800FEF7D8FE41F20303984212D82269402A3E
:102DD80007D03A494B6823F47C3343EA02334B600B
:102DE8000FE0364A536823F47C3343F400335360CE
:102DF80007E0324A536823F0FE43216943EA01633E
:102E08005360236813F0100F00F088802B4A136971
:102E180003F03803926A082B56D0182B50D0E36978
:102E2800002B00F0B880254A136843F08003136034
:102E3800FEF786FE0546214B1B6813F4807F40F0A1
:102E48008880FEF77DFE401B0228F4D9032048E263
:102E5800FEF790FE41F20303984212D82269402AF5
:102E680007D016494B6823F47C3343EA02334B609E
:102E7800C7E7124A536823F47C3343F400335360A2
:102E8800BFE70E4A536823F0FE43216943EA016312
:102E98005360B6E7094A136823F001031360FEF78D
:102EA8004FFE0546054B1B6813F0040FA9D0FEF72B
:102EB80047FE401B0228F5D9032012E200440258BD
:102EC80002F00302012AAAD1A14B1B6813F4807FE8
:102ED80003D0E369802B40F00182FEF74BFE41F2FC
:102EE8000303984212D8226A202A07D098494B68CF
:102EF80023F0F84343EA82634B600FE0944A536837
:102F080023F0F84343F08043536007E0904AD368C6
:102F180023F07C53216A43EA0163D360236813F0EA
:102F2800080F60D06369002B49D0894A536F43F07A
:102F380001035367FEF704FE0546854B5B6F13F0EC
:102F4800020F50D1FEF7FCFD401B0228F5D90320E3
:102F5800C7E1FEF70FFE41F20303984212D8226A36
:102F6800202A07D07A494B6823F0F84343EA826362
:102F78004B60D3E7764A536823F0F84343F0804325
:102F88005360CBE7724AD36823F07C53216A43EA43
:102F98000163D360C2E76E4A136823F080031360AD
:102FA800FEF7CEFD05466A4B1B6813F4807FB5D04B
:102FB800FEF7C6FD401B0228F5D9032091E1644ABB
:102FC800536F23F001035367FEF7BAFD0546604BC4
:102FD8005B6F13F0020F06D0FEF7B2FD401B02280C
:102FE800F5D903207DE1236813F0200F29D0A369C8
:102FF8009BB1574A136843F480531360FEF7A0FD52
:103008000546534B1B6813F4005F1AD1FEF798FD71
:10301800401B0228F5D9032063E14D4A136823F4C5
:1030280080531360FEF78CFD0546494B1B6813F46B
:10303800005F06D0FEF784FD401B0228F5D9032067
:103048004FE1236813F0040F21D1636A002B00F0CD
:1030580047813F4A126902F03802182A00F0EE80D0
:10306800022B79D03A4A136823F080731360FEF775
:1030780067FD0446364B1B6813F0007F00F0DC80C8
:10308800FEF75EFD001B0228F4D9032029E1314A2E
:10309800136843F480731360FEF752FD05462D4B09
:1030A8001B6813F4807F06D1FEF74AFD401B642895
:1030B800F5D9032015E1A368012B0AD00BBB244BDB
:1030C8001A6F22F001021A671A6F22F004021A67B7
:1030D80004E01F4A136F43F001031367A36833B377
:1030E800FEF72EFD05461A4B1B6F13F0020FACD1ED
:1030F800FEF726FD401B41F288339842F3D903209E
:10310800EFE0052B09D0124B1A6F22F001021A6763
:103118001A6F22F004021A67E0E70D4B1A6F42F0AB
:1031280004021A671A6F42F001021A67D6E7FEF71F
:1031380007FD0546064B1B6F13F0020F85D0FEF7FF
:10314800FFFC401B41F288339842F3D90320C8E0C2
:103158000044025800480258694A136823F08073F3
:103168001360FEF7EDFC0546654B1B6813F0007F06
:1031780006D0FEF7E5FC401B0228F5D90320B0E095
:103188005F4B996A5F4A0A40A16AE06A41EA001106
:103198000A439A62226B013AC2F30802616B013951
:1031A800490289B20A43A16B0139090401F4FE01FD
:1031B8000A43E16B0139090601F0FE410A431A632B
:1031C800DA6A22F00102DA62596B4F4A0A40A16CAE
:1031D80042EAC1025A63DA6A22F00C02216C0A43FD
:1031E800DA62DA6A22F00202616C0A43DA62DA6AA7
:1031F80042F48032DA62DA6A42F40032DA62DA6A77
:1032080042F48022DA62DA6A42F00102DA621A686B
:1032180042F080721A60FEF793FC0446384B1B6834
:1032280013F0007F06D1FEF78BFC001B0228F5D9AE
:10323800032056E0002054E0002052E0304A916A12
:10324800106B012B4ED001F00303A26A93424BD1BD
:10325800C1F30511E36A994248D1C0F30802236B10
:10326800013B9A4244D1C0F34622636B013B9A4228
:1032780040D1C0F30642A36B013B9A423CD1C0F354
:103288000660E36B013B984238D11D4B5B6BC3F37F
:10329800CC03A26C9A4201D1002022E0184AD36ADA
:1032A80023F00103D362FEF74BFC0546FEF748FC0A
:1032B800A842FBD0124A516B134B0B40A16C43EA56
:1032C800C1035363D36A43F00103D362002008E0CB
:1032D80001207047012004E0012002E0012000E005
:1032E800002038BD0120FCE70120FAE70120F8E7BB
:1032F8000120F6E70120F4E70120F2E70120F0E7DA
:10330800004402580CFCFFFF0700FFFF744B1B69C9
:1033180003F03803102B00F0DE80182B10D00BB10F
:10332800704870476E4B1B6813F0200F00F0D58073
:103338006B4B1868C0F3C1006B4B23FA00F0704761
:1033480010B4674A916A01F00301946AC4F3051046
:10335800D36A03F0010C536BC3F3CC030CFB03F3E8
:1033680007EE903AF8EE677A14F47C7F00F09380C9
:10337800012965D0022900F09180E1B107EE100A19
:10338800F8EE476A9FED596A86EE267A544B1B6B16
:10339800C3F3080306EE903AF8EE666A9FED546AA6
:1033A80067EE867A76EEA77AF7EE006A77EEA67A67
:1033B80027EE277A60E0136813F0200F23D0114618
:1033C8001268C2F3C102484BD34007EE103AF8EE38
:1033D800476A07EE100AB8EE476A86EE867A0B6BE4
:1033E800C3F3080306EE903AF8EE666A9FED406A6A
:1033F80067EE867A76EEA77AF7EE006A77EEA67A17
:1034080027EE277A38E007EE100AF8EE476A9FEDB4
:10341800396A86EE267A324B1B6BC3F3080306EE35
:10342800903AF8EE666A9FED326A67EE867A76EE33
:10343800A77AF7EE006A77EEA67A27EE277A1BE0DE
:1034480007EE100AF8EE476A9FED286A86EE267A9C
:10345800234B1B6BC3F3080306EE903AF8EE666A3B
:103468009FED236A67EE867A76EEA77AF7EE006A12
:1034780077EEA67A27EE277A194B1B6BC3F3462300
:10348800013307EE903AF8EE677AC7EE276AFCEE4A
:10349800E67A17EE900A5DF8044B704707EE100ABB
:1034A800F8EE476A9FED146A86EE267A0C4B1B6B82
:1034B800C3F3080306EE903AF8EE666A9FED0C6ACD
:1034C80067EE867A76EEA77AF7EE006A77EEA67A46
:1034D80027EE277AD0E7094870470348704700BFAE
:1034E8000044025800093D000090D0030024744AAB
:1034F800000000390024744C20BCBE4B40787D018C
:10350800002800F0328170B50D4604469B4B1B68BD
:1035180003F00F038B420BD2984A136823F00F0372
:103528000B431360136803F00F038B4240F01F81B5
:10353800236813F0040F0CD02269914B9B6903F0A8
:1035480070039A4205D98E498B6923F070031A4398
:103558008A61236813F0080F0CD06269884BDB6915
:1035680003F070039A4205D98549CB6923F07003AB
:103578001A43CA61236813F0100F0CD0A269804B5C
:10358800DB6903F4E0639A4205D97D49CB6923F4EA
:10359800E0631A43CA61236813F0200F0CD0E26974
:1035A800774B1B6A03F070039A4205D974490B6A7A
:1035B80023F070031A430A62236813F0020F0CD039
:1035C800E2686F4B9B6903F00F039A4205D96C4977
:1035D8008B6923F00F031A438A61236813F0010FE4
:1035E80041D0674A936923F47063A1680B439361E0
:1035F8006368022B0AD0032B27D0012B2CD0604AFA
:10360800126812F0040F06D10120ADE0126812F41E
:10361800003F00F0AE805A490A6922F007021343BE
:103628000B61FEF78DFA0646554B1B6903F038030C
:103638006268B3EBC20F16D0FEF782FA801B41F224
:1036480088339842F0D903208EE04D4A126812F070
:10365800007FE0D1012087E0494A126812F4807F98
:10366800D9D1012080E0236813F0020F0CD0E26862
:10367800434B9B6903F00F039A4205D240498B697B
:1036880023F00F031A438A613C4B1B6803F00F03B6
:10369800AB420AD9394A136823F00F032B4313604E
:1036A800136803F00F03AB4265D1236813F0040FCE
:1036B8000CD02269324B9B6903F070039A4205D201
:1036C8002F498B6923F070031A438A61236813F02A
:1036D800080F0CD062692A4BDB6903F070039A4229
:1036E80005D22749CB6923F070031A43CA612368BE
:1036F80013F0100F0CD0A269214BDB6903F4E063CF
:103708009A4205D21E49CB6923F4E0631A43CA6181
:10371800236813F0200F0CD0E269194B1B6A03F0E1
:1037280070039A4205D216490B6A23F070031A43B4
:103738000A62FFF7EBFD12498B69C3F30323114AB1
:10374800D35C03F01F03D8408B6903F00F03D35CED
:1037580003F01F0320FA03F30B4A13600B4B1860A6
:103768000B4B1868FEF78AF970BD012070470120DD
:10377800FAE70120F8E70120F6E700BF0020005231
:103788000044025808320308100000200C000020F2
:103798001800002008B5FFF7B9FD0B4A9369C3F379
:1037A80003230A49CB5C03F01F0320FA03F3926951
:1037B80002F00F02885C00F01F0023FA00F0044AB0
:1037C8001060044A136008BD004402580832030818
:1037D800100000200C00002008B5FFF7DBFF054BA8
:1037E800DB69C3F30213044AD35C03F01F03D84018
:1037F80008BD00BF004402580832030808B5FFF7A7
:10380800C9FF054BDB69C3F30223044AD35C03F009
:103818001F03D84008BD00BF0044025808320308FF
:10382800404B9B6A03F00303032B79D070B5054620
:103838000E463C4A136823F080631360FEF780F954
:103848000446384B1B6813F0006F06D0FEF778F972
:10385800031B022BF5D9032070BD324B9A6A22F460
:103868007C32296842EA01329A626A68013AC2F3F4
:103878000802A9680139490289B20A43E96801398D
:10388800090401F4FE010A4329690139090601F016
:10389800FE410A439A63DA6A22F0C00269690A4360
:1038A800DA62DA6A22F02002A9690A43DA62DA6A7D
:1038B80022F01002DA62D96B1B4A0A40E96942EA2F
:1038C800C102DA63DA6A42F01002DA62C6B91A464D
:1038D800DB6A43F40023D362124A136843F080631F
:1038E8001360FEF72DF904460E4B1B6813F0006FAA
:1038F80014D1FEF725F9001B0228F5D90320ABE700
:10390800012E05D0074AD36A43F40013D362E3E7D4
:10391800044AD36A43F48013D362DDE700209BE7AF
:1039280001207047004402580700FFFF404B9B6A84
:1039380003F00303032B79D070B505460E463C4AC5
:10394800136823F080531360FEF7FAF80446384BE7
:103958001B6813F0005F06D0FEF7F2F8031B022B7A
:10396800F5D9032070BD324B9A6A22F07C7229681F
:1039780042EA01529A626A68013AC2F30802A968E7
:103988000139490289B20A43E9680139090401F495
:10399800FE010A4329690139090601F0FE410A437B
:1039A8001A64DA6A22F4406269690A43DA62DA6AF6
:1039B80022F40072A9690A43DA62DA6A22F4807290
:1039C800DA62596C1B4A0A40E96942EAC1025A6440
:1039D800DA6A42F48072DA62C6B91A46DB6A43F4DC
:1039E8008003D362124A136843F080531360FEF7D2
:1039F800A7F804460E4B1B6813F0005F14D1FEF7BE
:103A08009FF8001B0228F5D90320ABE7012E05D04B
:103A1800074AD36A43F08073D362E3E7044AD36A60
:103A280043F40003D362DDE700209BE701207047E1
:103A3800004402580700FFFFF8B50446036813F076
:103A4800006F30D0836EB3F5001F26D00ED8EBB1CF
:103A5800B3F5801F07D102210830FFF7E1FE0546C4
:103A680045B12E4621E0012635461EE0B3F5401F3C
:103A780009D10025984A136D23F44013A16E0B4316
:103A88001365002611E0012635460EE0924AD36AF6
:103A980043F40033D3620025ECE702212830FFF716
:103AA80045FF0546DCE700263546236813F4807F8A
:103AB80014D0A36D042B32D8DFE803F003232A08BF
:103AC8000800854AD36A43F40033D36255BB824A5F
:103AD800136D23F00703A16D0B431365236813F4DB
:103AE800007F31D0E36D802B4CD020D8002B43D001
:103AF800402B19D1002104F10800FFF791FE05467B
:103B08001AE0002104F10800FFF78AFE0546DDE708
:103B1800002104F12800FFF709FF0546D6E7012632
:103B28003546DBE72E46D9E7012635460CE0C02BA3
:103B380002D0B3F5807F1CD15DBB674A136D23F4B7
:103B4800E073E16D0B431365236813F4806F46D06F
:103B5800D4F8A830B3F5800F39D01FD88BB3B3F59C
:103B6800001F18D1002104F10800FFF759FE05468F
:103B78001AE001263546E7E7574AD36A43F400338B
:103B8800D362D9E7002104F12800FFF7CFFE0546EC
:103B9800D2E72E46D8E70126354620E0B3F5C00F18
:103BA80002D0B3F5000F09D1C5B94B4A936D23F480
:103BB8006003D4F8A8100B43936510E0012635463E
:103BC8000DE0454AD36A43F40033D362ECE70021A1
:103BD80004F12800FFF7AAFE0546E5E72E4623680C
:103BE80013F4006F24D0D4F8AC30B3F1007F42D086
:103BF8000ED8002B39D0B3F1807F06D1002104F113
:103C08000800FFF70DFE054608E0012635460FE0DF
:103C1800B3F1407F02D0B3F1806F23D1002D31D1B1
:103C28002D4A936D23F0E063D4F8AC100B439365F1
:103C3800236813F0007F2ED0E36C202B40D026D8C9
:103C480033B1102B20D1244AD36A43F40033D36212
:103C5800002D3CD1204AD36C23F03003E16C0B4398
:103C6800D36418E001263546E2E71B4AD36A43F4D9
:103C78000033D362D2E7002104F12800FFF756FE93
:103C88000546CBE72E46D3E70126354603E0302B21
:103C9800DED001263546236813F4805F2DD0236ECD
:103CA800B3F5005F4FD019D8002B46D0B3F5805F2D
:103CB8000FD1002104F10800FFF7B2FD054613E01B
:103CC800022104F10800FFF7ABFD0546C0E72E46C8
:103CD800E1E70126354610E000440258B3F5405F9D
:103CE80002D0B3F5804F25D1002D33D1774A136D1B
:103CF80023F4E043216E0B431365236813F4005F3C
:103D080038D0636EB3F5003F53D028D843B1B3F52C
:103D1800803F21D1012104F10800FFF781FD05460C
:103D2800002D4DD1694A136D23F4E023616E0B43D6
:103D380013651FE001263546DFE7644AD36A43F47A
:103D48000033D362D0E7002104F12800FFF7EEFD2D
:103D58000546C9E72E46D0E7012635460AE0B3F501
:103D6800802FDDD0B3F5A02FDAD0B3F5403FD7D000
:103D780001263546236813F4804F31D0D4F8B0308B
:103D8800B3F1005F45D020D843B1B3F1805F19D1BA
:103D9800012104F10800FFF743FD0546002D3FD13E
:103DA8004A4A936D23F0E043D4F8B0100B4393656F
:103DB80016E0012104F12800FFF7B8FD0546AFE73A
:103DC8002E46D7E7012635460AE0B3F1804FE5D005
:103DD800B3F1A04FE2D0B3F1405FDFD00126354602
:103DE800236813F4004F09D0236FB3F1805F19D013
:103DF800B3F1005F24D0D3B101263546236813F010
:103E0800807F33D0A36C032B5BD8DFE803F0272235
:103E18005327012104F12800FFF788FD0546BDE777
:103E28002E46DDE7294AD36A43F40033D36275B9D5
:103E3800264A136D23F04053216F0B431365DDE7CA
:103E4800012104F10800FFF7EBFC0546EFE72E46D9
:103E5800D4E71E4AD36A43F40033D362A5BB1B4A96
:103E6800D36C23F00303A16C0B43D364236813F4CE
:103E7800800F2DD1236813F0010F00F0A580E36FA8
:103E8800282B00F29F80DFE803F08D9D9D9D9D9D6E
:103E98009D9D879D9D9D9D9D9D9D969D9D9D9D9D67
:103EA8009D9D8D9D9D9D9D9D9D9D8D9D9D9D9D9D5A
:103EB8009D9D8D00022104F10800FFF7B1FC054625
:103EC800CCE701263546D1E72E46CFE70044025815
:103ED800914A136843F480731360FDF731FE074677
:103EE8008D4B1B6813F4807F05D1FDF729FEC01B9D
:103EF8006428F5D90325002D4AD1884B1B6FD4F8C7
:103F0800B420534013F4407F0CD0844B1A6F22F432
:103F18004072196F41F480311967196F21F48031AB
:103F280019671A67D4F8B430B3F5807F15D08DBB04
:103F3800D4F8B43003F44072B2F5407F1ED0774A0B
:103F4800136923F47C53136174490B6FD4F8B420BC
:103F5800C2F30B0213430B678CE7FDF7F1FD07462D
:103F68006E4B1B6F13F0020FE1D1FDF7E9FDC01B8B
:103F780041F288339842F3D90325D8E767480269A4
:103F880022F47C52664901EA131313430361DBE709
:103F98002E466FE72E466DE7012104F10800FFF772
:103FA8003FFC0546E5B95D4A536D23F03803E16FE0
:103FB8000B43536508E0012104F12800FFF7B6FC24
:103FC8000546EFE701263546236813F0020F17D0A0
:103FD800A36F052B28D8DFE803F00B05200B0B0B8C
:103FE8002E46F1E7012104F10800FFF719FC054608
:103FF800EDB94A4A536D23F00703A16F0B4353658C
:10400800236813F0040F23D0D4F89430052B45D837
:10401800DFE803F0150F3D151515012104F12800FF
:10402800FFF784FC0546E3E701263546E8E72E4618
:10403800E6E7012104F10800FFF7F2FB054685BB1E
:10404800364A936D23F00703D4F894100B43936515
:10405800236813F0200F34D0D4F89030B3F1005F08
:104068004ED023D843B1B3F1805F1CD1002104F1B5
:104078000800FFF7D5FB0546002D48D1274A536DA8
:1040880023F0E043D4F890100B43536519E0012165
:1040980004F12800FFF74AFC0546D0E7012635461B
:1040A800D6E72E46D4E7012635460AE0B3F1804F1D
:1040B800E2D0B3F1A04FDFD0B3F1405FDCD00126EE
:1040C8003546236813F0400F37D0D4F89C30B3F549
:1040D800006F53D026D843B1B3F5806F19D10021B2
:1040E80004F10800FFF79CFB0546002D4DD10B4A53
:1040F800936D23F4E053D4F89C100B4393651CE0B4
:10410800022104F12800FFF711FC0546B4E72E460A
:10411800D7E70126354610E0004802580044025807
:10412800CFFFFF00B3F5805FDFD0B3F5A05FDCD031
:10413800B3F5406FD9D001263546236813F0800FB8
:1041480033D0D4F8A030B3F5804F00F0A38021D845
:1041580043B1B3F5005F1AD1002104F10800FFF75D
:104168005FFB0546002D40F09C80814A936D23F447
:104178006043D4F8A0100B43936516E0022104F1C4
:104188002800FFF7D3FB0546AFE72E46D5E7012603
:1041980035460AE0B3F5004FE4D0B3F5204FE1D03F
:1041A800B3F5C04FDED001263546236813F0080F5B
:1041B8000CD0D4F88430B3F5805F74D06C4A536D5A
:1041C80023F44053D4F884100B435365236813F049
:1041D800100F0CD0D4F89830B3F5807F6CD0644AB7
:1041E800936D23F44073D4F898100B4393652368B8
:1041F80013F4002F0BD0D4F8A430B3F5803F74D05B
:10420800B3F5003F67D0002B5FD001263546236801
:1042180013F4802F0CD0D4F88830B3F5001F7CD06D
:10422800B3F5401F6FD0B3F5801F67D00126354620
:10423800236813F4803F08D0236D002B76D0B3F5A4
:10424800803F00F0818001263546236813F0005F27
:1042580040F08380236813F4003F00F08E80D4F888
:104268008030B3F5807F00F0EC8040F28380B3F5B6
:10427800007F03D0B3F5407F40F0E180002D40F08F
:10428800E6803B4A536D23F44073D4F880100B4307
:10429800536572E0022104F12800FFF747FB054649
:1042A80060E72E4681E7022104F12800FFF73EFB74
:1042B800002883D0012681E7022104F12800FFF7B6
:1042C80035FB00288BD0012689E7002104F108007E
:1042D800FFF7A6FA05467DB9254A936D23F44033C6
:1042E800D4F8A4100B43936591E7022104F1280048
:1042F800FFF71CFB0546EEE72E4688E71C4AD36A03
:1043080043F40033D3627DB9194A536D23F4401343
:10431800D4F888100B4353658AE7012104F128007B
:10432800FFF704FB0546EEE72E4681E7104AD36AFD
:1043380043F40033D36275B90D4AD36C23F4803348
:10434800216D0B43D36480E7022104F10800FFF7D5
:1043580067FA0546EFE72E4677E7022104F12800C1
:10436800FFF7E4FA00283FF475AF012672E700BFB3
:1043780000440258002B81D00126236813F4801FC3
:1043880006D04F4A136D23F00043616F0B4313654A
:10439800236813F0805F07D0494A136923F48043E8
:1043A800D4F8B8100B431361236813F4001F06D028
:1043B800434A136D23F08073E16E0B431365236842
:1043C80013F0804F09D03E4B1A6922F400421A615B
:1043D8001A69D4F8BC100A431A612368002B06DA5C
:1043E800374AD36C23F04053616D0B43D364236881
:1043F80013F4000F07D0324A536D23F44003D4F866
:104408008C100B435365636813F0010F21D1636867
:1044180013F0020F26D1636813F0040F2BD16368E1
:1044280013F0080F30D1636813F0100F35D16368AB
:1044380013F0200F3AD106B101263046F8BD012607
:104448009BE71F4AD36A43F40033D36216E72E462C
:1044580093E7002104F10800FFF7E2F90028D6D01D
:104468000646D4E7012104F10800FFF7D9F900282E
:10447800D1D00646CFE7022104F10800FFF7D0F9B2
:104488000028CCD00646CAE7002104F12800FFF72F
:104498004DFA0028C7D00646C5E7012104F12800D7
:1044A800FFF744FA0028C2D00646C0E7022104F10B
:1044B8002800FFF73BFA0028BDD00646BBE700BF3F
:1044C8000044025808B5FFF765F9054B1B6AC3F3AA
:1044D8000213044AD35C03F01F03D84008BD00BF91
:1044E800004402580832030810B5774A916A946A62
:1044F800C4F3053ED36AC3F3001CD36BC3F3CC03E8
:104508000CFB03F314F47C3F00F0D88001F00301A6
:1045180007EE903AF8EE677A012965D0022900F093
:10452800B080E1B107EE10EAB8EE477A9FED676A0E
:10453800C6EE076A644B9B6BC3F3080307EE103A99
:10454800B8EE477A9FED626A67EE867A77EE277A49
:10455800B7EE007A77EE877A66EEA76A60E01368AE
:1045680013F0200F23D011461268C2F3C102594B31
:10457800D34007EE103AB8EE477A06EE90EAB8EE66
:10458800666AC7EE066A8B6BC3F3080307EE103A38
:10459800B8EE477A9FED4E6A67EE867A77EE277A0D
:1045A800B7EE007A77EE877A66EEA76A38E007EE0C
:1045B80010EAB8EE477A9FED486AC6EE076A424BA2
:1045C8009B6BC3F3080307EE103AB8EE477A9FEDEA
:1045D800406A67EE867A77EE277AB7EE007A77EE4A
:1045E800877A66EEA76A1BE007EE10EAB8EE477A0C
:1045F8009FED366AC6EE076A334B9B6BC3F308031D
:1046080007EE103AB8EE477A9FED316A67EE867A80
:1046180077EE277AB7EE007A77EE877A66EEA76AA2
:10462800294A936BC3F3462307EE103AB8EE477A4C
:10463800B7EE006A37EE067AC6EE877AFCEEE77ABE
:10464800C0ED007A936BC3F3064307EE103AB8EE59
:10465800477A37EE067AC6EE877AFCEEE77AC0ED3F
:10466800017A936BC3F3066307EE903AF8EE677A24
:1046780077EE867A86EEA77ABCEEC77A80ED027A64
:1046880010BD07EE10EAB8EE477A9FED146AC6EE41
:10469800076A0D4B9B6BC3F3080307EE103AB8EE9D
:1046A800477A9FED0B6A67EE867A77EE277AB7EE40
:1046B800007A77EE877A66EEA76AB1E7002303608F
:1046C80043608360DCE700BF004402580024744A5A
:1046D800000000390090D0030024744C20BCBE4B6D
:1046E80010B5774A916A946AC4F3055ED36AC3F336
:1046F800002C536CC3F3CC030CFB03F314F07C7F46
:1047080000F0D88001F0030107EE903AF8EE677ADE
:10471800012965D0022900F0B080E1B107EE10EA66
:10472800B8EE477A9FED676AC6EE076A644B1B6C62
:10473800C3F3080307EE103AB8EE477A9FED626AB2
:1047480067EE867A77EE277AB7EE007A77EE877A81
:1047580066EEA76A60E0136813F0200F23D01146B5
:104768001268C2F3C102594BD34007EE103AB8EEB3
:10477800477A06EE90EAB8EE666AC7EE066A0B6CF0
:10478800C3F3080307EE103AB8EE477A9FED4E6A76
:1047980067EE867A77EE277AB7EE007A77EE877A31
:1047A80066EEA76A38E007EE10EAB8EE477A9FEDA2
:1047B800486AC6EE076A424B1B6CC3F3080307EE50
:1047C800103AB8EE477A9FED406A67EE867A77EE40
:1047D800277AB7EE007A77EE877A66EEA76A1BE04B
:1047E80007EE10EAB8EE477A9FED366AC6EE076A1A
:1047F800334B1B6CC3F3080307EE103AB8EE477A45
:104808009FED316A67EE867A77EE277AB7EE007AFF
:1048180077EE877A66EEA76A294A136CC3F34623B4
:1048280007EE103AB8EE477AB7EE006A37EE067A26
:10483800C6EE877AFCEEE77AC0ED007A136CC3F314
:10484800064307EE103AB8EE477A37EE067AC6EE18
:10485800877AFCEEE77AC0ED017A136CC3F306633E
:1048680007EE903AF8EE677A77EE867A86EEA77AC0
:10487800BCEEC77A80ED027A10BD07EE10EAB8EEFA
:10488800477A9FED146AC6EE076A0D4B1B6CC3F39B
:10489800080307EE103AB8EE477A9FED0B6A67EE09
:1048A800867A77EE277AB7EE007A77EE877A66EE21
:1048B800A76AB1E70023036043608360DCE700BFB9
:1048C800004402580024744A000000390090D003C4
:1048D8000024744C20BCBE4B08B338B50D460446C2
:1048E80090F82C30B3B1022384F82C30214651F8CB
:1048F800040B00F063FF62682946206800F098FF07
:10490800084A136843F000431360012384F82C30ED
:10491800002038BD80F82D30FCF73CFBE3E7012090
:10492800704700BF00400052704703689B6913F04E
:10493800010F00D1704710B50446FFF7F5FF226854
:10494800536943F00103536110BD38B5044690F82C
:104958002C30D8B2022805D00D46052818BF0128EA
:1049680001D0012038BD022384F82C30206800F0E3
:10497800B3FF2B68022B04D0012384F82C300020CD
:10498800F0E7052384F82C300020EBE710B5044647
:1049980090F82C30D8B2022805D094F82C30DBB22D
:1049A800012B01D0012010BD022384F82C3020688F
:1049B80000F0AAFF012384F82C300020F3E7000060
:1049C800026852E8003F23F4907342E8003100295E
:1049D800F6D1026802F1080353E8001F0D4B0B40A3
:1049E800083242E800310029F3D1C36E012B06D00A
:1049F8002023C0F88C300023C366436770470268E1
:104A080052E8003F23F0100342E800310029F6D1B4
:104A1800EEE700BFFEFFFFEF704708B5026852E8F7
:104A2800003F23F0400342E800310029F6D120235B
:104A3800C0F8883000238367FFF7EEFF08BD704792
:104A480008B5806B0023A0F85E30A0F85630FFF759
:104A5800F6FF08BD7047000070B504460168CB69D1
:104A680008688D6840F60F021A4008D113F0200F2D
:104A780005D010F0200F34D115F0805F31D12AB164
:104A88008B4A2A4033D18B4E304230D1E26E012A14
:104A980000F0C68013F4801F03D015F4800F40F097
:104AA8009B8113F0800F07D010F0800F40F09B819E
:104AB80015F4000F40F0978113F0400F03D010F069
:104AC800400F40F0978113F4000F03D010F0804F8F
:104AD80040F0948113F0807F02D00028C0F29281C8
:104AE80070BD636F002BFBD020469847F8E713F0A2
:104AF800010F09D010F4807F06D001260E62D4F889
:104B080090103143C4F8901013F0020F0BD015F039
:104B1800010F08D0216802260E62D4F8901041F0E7
:104B28000401C4F8901013F0040F0BD015F0010F16
:104B380008D0216804260E62D4F8901041F00201D2
:104B4800C4F8901013F0080F0BD010F0200F00D10C
:104B58003AB1226808211162D4F890200A43C4F8B7
:104B6800902013F4006F0CD010F0806F09D02268E9
:104B78004FF400611162D4F8902042F02002C4F88A
:104B88009020D4F89020002AAAD013F0200F09D042
:104B980010F0200F02D115F0805F03D0636F0BB1C6
:104BA80020469847D4F8902023689B6813F0400F5C
:104BB80002D112F0280F2CD02046FFF701FF2368FE
:104BC8009B6813F0400F20D0226802F1080353E8D5
:104BD800003F23F04003083242E800310029F3D1B6
:104BE800D4F880306BB1344A1A65D4F88000FDF7E8
:104BF8001FFA00283FF474AFD4F88000036D98477B
:104C08006EE72046FFF71BFF6AE72046FFF717FF0E
:104C180066E72046FFF713FF0023C4F890305FE7EC
:104C280013F0100F3FF436AF10F0100F3FF432AF0F
:104C380010230B6223689B6813F0400F00F09280EA
:104C4800D4F8802013681D481D498B4218BF834241
:104C580038D018318B4235D018318B4232D01831C8
:104C68008B422FD018318B422CD018318B4229D04F
:104C780018318B4226D001F556718B4222D018315B
:104C88008B421FD018318B421CD018318B4219D05F
:104C980018318B4216D018318B4213D018318B4201
:104CA80010D018318B420DD05B689BB20CE000BF6E
:104CB8000100001020010004494A000810000240C9
:104CC800280002405B689BB2002B3FF409AFB4F8A0
:104CD8005C1099427FF604AFA4F85E30D369B3F54F
:104CE800807F32D0226852E8003F23F4807342E884
:104CF80000310029F6D1226802F1080353E8003F89
:104D080023F00103083242E800310029F3D1226878
:104D180002F1080353E8003F23F04003083242E859
:104D280000310029F3D12023C4F88C300023E36636
:104D3800226852E8003F23F0100342E800310029BE
:104D4800F6D1D4F88000FCF7D3FF02232367B4F828
:104D58005C10B4F85E309BB2C91A89B22046FFF7DE
:104D680079FEBDE6B4F85C10B4F85E309BB2C91A9F
:104D780089B2B4F85E309BB2002B3FF4B1AE002983
:104D88003FF4AEAE226852E8003F23F4907342E845
:104D980000300028F6D1226802F1080353E8000F1A
:104DA8001A4B0340083242E800300028F3D1202390
:104DB800C4F88C300023E3666367226852E8003F3A
:104DC80023F0100342E800300028F6D102232367BD
:104DD8002046FFF73FFE83E64FF480130B62204620
:104DE80000F080FC7CE6A36F002B3FF479AE2046F0
:104DF800984775E62046FFF710FE71E6204600F05A
:104E080073FC6DE6204600F06EFC69E6FEFFFFEFDE
:104E180070B586B004460168836802691343426925
:104E28001343C26913430868884A024013430B605E
:104E38002268536823F44053E1680B435360A16927
:104E48002268834B9A4201D0236A19439068814BA8
:104E580003400B4393602268D36A23F00F03616A0F
:104E68000B43D36222687C4B9A4221D07B4B9A42F7
:104E780000F08C807A4B9A4200F0A280794B9A42DB
:104E880000F0B580784B9A4200F0C880774B9A4280
:104E980000F0F480764B9A4200F01981754B9A42E3
:104EA80000F02C816A4B9A4200F03F81802333E066
:104EB800714B5B6D03F03803282B65D8DFE813F0DE
:104EC80029006400640064006400640064006400F5
:104ED8004D016400640064006400640064006400C0
:104EE8002B006400640064006400640064006400D3
:104EF8005E00640064006400640064006400640090
:104F0800600064006400640064006400640064007D
:104F18006200012300E008234D498A4200F02F81F6
:104F2800E069B0F5004F00F0AF81202B00F2078256
:104F3800202B00F25182DFE813F01E0224024F02F8
:104F48004F0227024F024F024F022C024F024F021C
:104F58004F024F024F024F024F0231024F024F02DF
:104F68004F024F024F024F024F024F024F024F02B1
:104F78004F024F024F024F024F023D021023CBE770
:104F88002023C9E74023C7E78023C5E73A4B5B6D79
:104F980003F00703052B11D8DFE813F00600E10042
:104FA80008000A000C000E000023B5E70823B3E749
:104FB8001023B1E72023AFE74023ADE78023ABE719
:104FC8002D4B5B6D03F00703052B0ED8DFE803F0CC
:104FD80003C90507090B00239EE708239CE7102354
:104FE8009AE7202398E7402396E7802394E7224B0B
:104FF8005B6D03F00703052B0ED8DFE803F003B45D
:105008000507090B002387E7082385E7102383E7B3
:10501800202381E740237FE780237DE7164B5B6DE4
:1050280003F00703052B0ED8DFE803F0039F0507FD
:10503800090B002370E708236EE710236CE7202391
:105048006AE7402368E7802366E700BFF369FFCF7C
:10505800000C0058FFF4FF1100100140004400400C
:1050680000480040004C004000500040001401403F
:1050780000780040007C0040004402587D4B5B6D86
:1050880003F03803282B20D8DFE803F0151F1F1F73
:105098001F1F1F1F711F1F1F1F1F1F1F171F1F1FCE
:1050A8001F1F1F1F191F1F1F1F1F1F1F1B1F1F1F12
:1050B8001F1F1F1F1D0001232EE708232CE71023A5
:1050C8002AE7202328E7402326E7802324E7694BA3
:1050D8005B6D03F00703052B0ED8DFE803F0034AE6
:1050E8000507090B002317E7082315E7102313E723
:1050F800202311E740230FE780230DE75D4B5B6D0D
:1051080003F00703052B0ED8DFE803F00335050786
:10511800090B002300E70823FEE61023FCE6202302
:10512800FAE64023F8E68023F6E603F50E339B6D96
:1051380003F00703052B0ED8DFE803F0031F05076C
:10514800090B0223E8E60823E6E61023E4E6202319
:10515800E2E64023E0E68023DEE60423DCE60423DF
:10516800DAE60423D8E60423D6E60423D4E60423A7
:10517800D2E60423D0E60423CEE60423CCE6202B93
:1051880027D8022BC0F01A81023B1E2B00F218818F
:10519800DFE813F05000160156001601160116013B
:1051A8005B001601160116011601160116011601FB
:1051B80060001601160116011601160116011601E6
:1051C800160116011601160116011601160116011F
:1051D8006C00402B2CD14FF40040626A264B33F808
:1051E8001220B0FBF2F3656805EB4501994200F225
:1051F800E980B3EB053F00F2E780002633463146ED
:10520800FBF778F8090241EA106100026B08C01840
:105218002A46334641F10001FBF76CF8A0F54072CD
:10522800164B9A4200F2D2802368D8603046D4E008
:105238000120D2E0FFF746F90028CED10020CCE0CB
:1052480003A8FFF751F90498F6E76846FFF748FA0C
:105258000198F1E7074B1B6813F0200F08D0054BA6
:105268001B68C3F3C1030648D840E5E70548B4E71F
:105278000348B2E70044025818320308FFFC0F0045
:105288000090D00300093D00202B15D8202B00F2F8
:105298009F80DFE803F031379D9D3A9D9D9D3F9D9E
:1052A8009D9D9D9D9D9D449D9D9D9D9D9D9D9D9D7F
:1052B8009D9D9D9D9D9D5000402B1BD1626A4D4B2D
:1052C80033F81230B0FBF3F06268530803EB400088
:1052D800B0FBF2F0A0F110024FF6EF739A4279D8C2
:1052E80083B223F00F03C0F3420018432368D86049
:1052F800002072E0012070E0FEF76EFA0028DDD190
:1053080000206AE0FEF77AFAF8E703A8FFF7ECF85E
:105318000498F3E76846FFF7E3F90198EEE7364BA0
:105328001B6813F0200F08D0334B1B68C3F3C1036D
:105338003248D840E2E73248C0E73048BEE7402B61
:1053480017D14FF40040626A2A4B33F81230B0FB91
:10535800F3F0636800EB5300B0FBF3F0A0F1100228
:105368004FF6EF739A4242D8236880B2D860002083
:1053780033E0012031E0FEF72FFA0028E3D10020C6
:105388002BE0FEF73BFAF8E703A8FFF7ADF804981F
:10539800F3E76846FFF7A4F90198EEE7164B1B6898
:1053A80013F0200F08D0144B1B68C3F3C103134834
:1053B800D840E2E71248C6E71048C4E701200CE0ED
:1053C80001200AE0012008E0012006E0012004E0B5
:1053D800012002E0012000E001200123A4F86A3046
:1053E800A4F8683000236367A36706B070BD012086
:1053F800F3E700BF18320308004402580090D003B6
:1054080000093D00836A13F0010F06D00268536853
:1054180023F40033C16A0B435360836A13F0020F0D
:1054280006D00268536823F48033016B0B43536042
:10543800836A13F0040F06D00268536823F48023AC
:10544800416B0B435360836A13F0080F06D0026860
:10545800536823F40043816B0B435360836A13F052
:10546800100F06D00268936823F48053C16B0B4376
:105478009360836A13F0200F06D00268936823F4C0
:105488000053016C0B439360836A13F0400F0AD0FA
:105498000268536823F48013416C0B435360436CD8
:1054A800B3F5801F0BD0836A13F0800F06D0026813
:1054B800536823F40023C16C0B43536070470268A0
:1054C800536823F4C003816C0B435360EBE72DE969
:1054D800F84305460F4616469946DDF820802C68A5
:1054E800E46937EA04030CBF4FF0010C4FF0000CDD
:1054F800B44532D1B8F1FF3FF1D0FCF721FBA0EB66
:10550800090040452CD8B8F1000F2BD02B681A6839
:1055180012F0040FE3D0DA6912F0080F11D1DA693A
:1055280012F4006FDBD04FF400621A622846FFF7CE
:1055380047FA2023C5F89030002385F884300320EB
:105548000CE008241C622846FFF73AFAC5F8904098
:10555800002385F88430012000E00020BDE8F883AE
:105568000320FBE70320F9E730B583B004460023A6
:10557800C0F89030FCF7E4FA05462268126812F089
:10558800080F10D123681B6813F0040F28D12023BB
:10559800C4F88830C4F88C300020E066206784F8AE
:1055A800840003B030BD6FF07E43009303460022B1
:1055B8004FF400112046FFF78AFF0028E2D0226846
:1055C80052E8003F23F0800342E800310029F6D179
:1055D8002023C4F88830002384F884300320E0E7CF
:1055E8006FF07E4300932B4600224FF48001204643
:1055F800FFF76DFF0028CAD0226852E8003F23F465
:10560800907342E800310029F6D1226802F10803BC
:1056180053E8003F23F00103083242E80031002933
:10562800F3D12023C4F88C30002384F8843003207D
:10563800B7E778B310B50446D0F888300BB3242305
:10564800C4F888302268136823F0010313602046E9
:10565800FFF7DEFB012813D0A36ABBB922685368A1
:1056680023F4904353602268936823F02A039360DD
:105678002268136843F0010313602046FFF774FFA4
:1056880010BD80F88430FCF7A5F9D8E72046FFF76D
:10569800B9FEE3E701207047436E2BB90123A0F858
:1056A8006A30A0F86830704730B403689A68C2F36B
:1056B80042629968490F094D6B5C1B01084C615C9B
:1056C80093FBF1F3A0F86A30AB5C1B01A25C93FB7F
:1056D800F2F3A0F8683030BC704700BF38320308D6
:1056E8003032030870477047704790F88430012BB8
:1056F80018D0012380F884302423C0F88830036848
:105708001A68196821F00101196022F0005200237B
:10571800436601680A602022C0F8882080F8843037
:10572800184670470220704738B590F88430012B2E
:105738001DD00446012380F884302423C0F8883023
:1057480003681D681A6822F001021A6002689368EB
:1057580023F0604319439160FFF79EFF23681D60A3
:105768002023C4F88830002084F8840038BD022043
:10577800FCE738B590F88430012B1DD0044601238E
:1057880080F884302423C0F8883003681D681A68BC
:1057980022F001021A600268936823F060631943DB
:1057A8009160FFF779FF23681D602023C4F88830D3
:1057B800002084F8840038BD0220FCE710B40B6890
:1057C800CBB90368194A1A404B688C682343CC68E4
:1057D80023430C6923434C6923438C692343CC69D5
:1057E80023430C6A2343496A0B4313430360002095
:1057F8005DF8044B7047036823F4F843CA690C6AE0
:1058080022434C6A2243134303604368074A1A4001
:105818004B688C682343CC6823430C6923434C6949
:10582800234389690B4313434360E0E70080FFFF8C
:1058380010B43ABB826802F070420B68013B4C68B6
:1058480004F1FF3C43EA0C138C6804F1FF3C43EA83
:105858000C23CC6804F1FF3C43EA0C330C6904F1D7
:10586800FF3C43EA0C434C6904F1FF3C43EA0C5308
:105878008969013943EA01631343836000205DF8B5
:10588800044B70478368134A1A40CB6803F1FF3C06
:105898004B69013B1B0543EA0C3313438360C26821
:1058A80002F070420B68013B4C6804F1FF3C43EA8C
:1058B8000C138C6804F1FF3C43EA0C230C6904F1D7
:1058C800FF3C43EA0C438969013943EA0163134306
:1058D800C360D3E7FF0F0FFF10B40369094A1A40EA
:1058E8000B684C6823438C6804F1FF3C43EA4C1373
:1058F800C96843EA41231343036100205DF8044B60
:10590800704700BF0000C0FF4269034B134043EAE1
:10591800410343610020704701C0FFFF08B51EF036
:1059280093FD01F0B9FC2022002106F0CEFF0D4BBB
:1059380018601EF089FD01F0AFFC00220A4907F04B
:1059480039FD1EF081FD01F0A7FC00F045F9074B79
:1059580018601EF079FD01F09FFC01F0F3F9044B8B
:10596800186008BD4C040020473234FF480400206A
:10597800440400200D2803D8024B53F82000704738
:10598800002070476CD90C080E2803D8024B53F836
:105998002000704700207047C0D80C080D2803D895
:1059A800024B53F82000704700207047FCD80C08C1
:1059B8000D2803D8024B53F8200070470020704789
:1059C80034D90C082DE9F0478CB004460D4608463A
:1059D800FFF7EEFF5A4BA3FB00235B09C3EB03124F
:1059E800A0EB82020092574A202104A821F02CF84B
:1059F8002846FFF7BFFF07462846FFF7C5FF814641
:105A0800204602F05FFD04464F4A002107F029FBBB
:105A18003C2242F26401204603F00AFE00224B4970
:105A2800204607F05DF920224949204607F058F939
:105A380001224849204607F053F98022464920466A
:105A480007F04EF9002307224449204601F0E0FD03
:105A5800022D6FD8204626F041FE8246404926F0A6
:105A680049FE4FF00208CDF808800026019601256E
:105A780000952B4632463146504614F057F82046DA
:105A880027F014F98246394627F0D0FD0295019691
:105A980000952B462A463146504614F047F83246C0
:105AA8003049504607F01CF9204627F0FFF8074612
:105AB800494627F0BBFD32462B49384607F010F916
:105AC8000295019500952B462A463146384614F032
