:020000040800F2
:1000000000000220A9460008510F0008530F000805
:10001000550F0008570F0008590F00080000000096
:100020000000000000000000000000005B0F00085E
:100030005D0F0008000000005F0F0008610F00085E
:10004000F9460008F9460008F9460008F946000894
:10005000F9460008F9460008F9460008F946000884
:10006000F9460008F9460008F9460008F946000874
:10007000F9460008F9460008F9460008F946000864
:10008000F9460008F9460008F9460008F946000854
:10009000F9460008F9460008F9460008F946000844
:1000A000F9460008F9460008F9460008F946000834
:1000B000F9460008F9460008F9460008F946000824
:1000C000F9460008F9460008F9460008F946000814
:1000D000F9460008690F0008F9460008F9460008CB
:1000E000F9460008F946000800000000F94600083B
:1000F000F9460008F9460008F9460008F9460008E4
:10010000F9460008F9460008F9460008F9460008D3
:10011000F9460008F9460008F9460008F9460008C3
:10012000F9460008F9460008F9460008F9460008B3
:10013000F9460008F9460008F9460008F9460008A3
:1001400000000000000000000000000000000000AF
:10015000F9460008F9460008F9460008F946000883
:10016000F9460008F9460008F9460008F946000873
:10017000F9460008F9460008F946000800000000AA
:10018000F9460008F9460008F9460008F946000853
:10019000F9460008F9460008F9460008F946000843
:1001A000F9460008F9460008F9460008F946000833
:1001B000F9460008F9460008F9460008F946000823
:1001C000F9460008F9460008F9460008F946000813
:1001D000F9460008F9460008F9460008F946000803
:1001E000F9460008F9460008F9460008F9460008F3
:1001F000F9460008F9460008F9460008F9460008E3
:10020000F9460008F9460008F9460008F9460008D2
:10021000F9460008F9460008F9460008F9460008C2
:10022000F9460008F9460008F946000800000000F9
:10023000F9460008F946000800000000F9460008E9
:10024000F9460008F9460008F9460008F946000892
:10025000F9460008F9460008F9460008F946000882
:10026000F9460008F9460008F9460008F946000872
:10027000F9460008F9460008F946000800000000A9
:10028000F9460008F9460008F94600080000000099
:0802900000000000F94600081F
:1002980010B5054C237833B9044B13B10448AFF3B8
:1002A80000800123237010BD7400002000000000AE
:1002B800BC51000808B5034B1BB103490348AFF311
:1002C800008008BD0000000078000020BC51000834
:1002D80053B94AB9002908BF00281CBF4FF0FF31A5
:1002E8004FF0FF3000F074B9ADF1080C6DE904CEA1
:1002F80000F006F8DDF804E0DDE9022304B07047F9
:100308002DE9F047089D04468E46002B4DD18A42C0
:10031800944669D9B2FA82F252B101FA02F3C2F1F3
:10032800200120FA01F10CFA02FC41EA030E944084
:100338004FEA1C48210CBEFBF8F61FFA8CF708FBA5
:1003480016E341EA034306FB07F199420AD91CEB7D
:10035800030306F1FF3080F01F81994240F21C81AF
:10036800023E63445B1AA4B2B3FBF8F008FB1033F7
:1003780044EA034400FB07F7A7420AD91CEB04042C
:1003880000F1FF3380F00A81A74240F207816444FC
:10039800023840EA0640E41B00261DB1D440002381
:1003A800C5E900433146BDE8F0878B4209D9002DE5
:1003B80000F0EF800026C5E9000130463146BDE86F
:1003C800F087B3FA83F6002E4AD18B4202D38242D9
:1003D80000F2F980841A61EB030301209E46002D88
:1003E800E0D0C5E9004EDDE702B9FFDEB2FA82F2DD
:1003F800002A40F09280A1EB0C014FEA1C471FFA3B
:100408008CFE0126200CB1FBF7F307FB131140EA21
:1004180001410EFB03F0884208D91CEB010103F1EE
:10042800FF3802D2884200F2CB804346091AA4B2B0
:10043800B1FBF7F007FB101144EA01440EFB00FE84
:10044800A64508D91CEB040400F1FF3102D2A645E9
:1004580000F2BB800846A4EB0E0440EA03409CE788
:10046800C6F12007B34022FA07FC4CEA030C20FA35
:1004780007F401FA06F31C43F9404FEA1C4900FA55
:1004880006F3B1FBF9F8200C1FFA8CFE09FB1811D2
:1004980040EA014108FB0EF0884202FA06F20BD945
:1004A8001CEB010108F1FF3A80F08880884240F295
:1004B8008580A8F102086144091AA4B2B1FBF9F0D9
:1004C80009FB101144EA014100FB0EFE8E4508D9D4
:1004D8001CEB010100F1FF346CD28E456AD9023859
:1004E800614440EA0840A0FB0294A1EB0E01A1423E
:1004F800C846A64656D353D05DB1B3EB080261EBAC
:100508000E0101FA07F722FA06F3F1401F43C5E985
:10051800007100263146BDE8F087C2F12003D840BB
:100528000CFA02FC21FA03F3914001434FEA1C47FD
:100538001FFA8CFEB3FBF7F007FB10360B0C43EAEF
:10054800064300FB0EF69E4204FA02F408D91CEB9F
:10055800030300F1FF382FD29E422DD9023863449D
:100568009B1B89B2B3FBF7F607FB163341EA03413D
:1005780006FB0EF38B4208D91CEB010106F1FF388C
:1005880016D28B4214D9023E6144C91A46EA004683
:1005980038E72E46284605E70646E3E61846F8E615
:1005A8004B45A9D2B9EB020864EB0C0E0138A3E75E
:1005B8004646EAE7204694E74046D1E7D0467BE73F
:1005C800023B614432E7304609E76444023842E7B7
:1005D800704700BF38B504461D4D0022102128463B
:1005E80001F088FA00222021284601F083FA00222F
:1005F8008021284601F07EFA01222021284601F0B8
:1006080079FA00250DE000228021114801F072FAE4
:10061800012220210E4801F06DFA6400E4B2013590
:10062800EDB2072D0DD800222021094801F062FA09
:1006380014F0800FE7D001228021054801F05AFA12
:10064800E6E701221021024801F054FA38BD00BF44
:100658000000025838B504461D4D002210212846D6
:1006680001F048FA00222021284601F043FA01222D
:100678008021284601F03EFA01222021284601F077
:1006880039FA00250DE000228021114801F032FAE4
:10069800012220210E4801F02DFA6400E4B2013550
:1006A800EDB2072D0DD800222021094801F022FAC9
:1006B80014F0800FE7D001228021054801F01AFAD2
:1006C800E6E701221021024801F014FA38BD00BF04
:1006D8000000025810B5012000F0A0FDFD4C0022DA
:1006E8000121204601F006FA0A2000F097FD0122B8
:1006F8001146204601F0FEF9782000F08FFDFF201A
:10070800FFF768FF7720FFF7A5FF0120FFF7A2FF9B
:100718000020FFF79FFF0020FFF79CFF1320FFF743
:1007280099FFEF20FFF756FF0820FFF793FFFF2000
:10073800FFF750FF7720FFF78DFF0120FFF78AFFB3
:100748000020FFF787FF0020FFF784FF1020FFF746
:1007580081FFC020FFF73EFF4F20FFF77BFF0020FF
:10076800FFF778FFC120FFF735FF1020FFF772FF72
:100778000C20FFF76FFFC220FFF72CFF0120FFF7C7
:1007880069FF1420FFF766FFCC20FFF723FF102036
:10079800FFF760FFB020FFF71DFF0020FFF75AFFAB
:1007A8000B20FFF757FF1320FFF754FF0D20FFF72B
:1007B80051FF1020FFF74EFF0720FFF74BFF0220E5
:1007C800FFF748FF0820FFF745FF0720FFF742FF24
:1007D8001F20FFF73FFF0420FFF73CFF1120FFF722
:1007E80039FF0F20FFF736FF2820FFF733FF2F20B0
:1007F800FFF730FF1F20FFF72DFFB120FFF7EAFEBC
:100808000020FFF727FF0C20FFF724FF1320FFF736
:1008180021FF0C20FFF71EFF1020FFF71BFF05200C
:10082800FFF718FF0220FFF715FF0820FFF712FF58
:100838000820FFF70FFF1E20FFF70CFF0520FFF72A
:1008480009FF1320FFF706FF1120FFF703FF2720FA
:10085800FFF700FF3020FFF7FDFE1F20FFF7FAFE2D
:10086800FF20FFF7B7FE7720FFF7F4FE0120FFF720
:10087800F1FE0020FFF7EEFE0020FFF7EBFE11204F
:10088800FFF7E8FEB020FFF7A5FE4D20FFF7E2FED8
:10089800B120FFF79FFE3D20FFF7DCFEB220FFF7F7
:1008A80099FE8720FFF7D6FEB320FFF793FE80203E
:1008B800FFF7D0FEB520FFF78DFE4520FFF7CAFEF3
:1008C800B720FFF787FE8520FFF7C4FEB820FFF7A3
:1008D80081FE2020FFF7BEFEC020FFF77BFE092027
:1008E800FFF7B8FEC120FFF775FE7820FFF7B2FECC
:1008F800C220FFF76FFE7820FFF7ACFED020FFF78D
:1009080069FE8820FFF7A6FE642000F087FCE0203F
:10091800FFF760FE0020FFF79DFE0020FFF79AFE1C
:100928000220FFF797FEE120FFF754FE0420FFF7AF
:1009380091FEB020FFF78EFE0620FFF78BFEB02059
:10094800FFF788FE0520FFF785FEB020FFF782FE3F
:100958000720FFF77FFEB020FFF77CFE0020FFF79F
:1009680079FE4420FFF776FE4420FFF773FEE2206D
:10097800FFF730FE2020FFF76DFE2020FFF76AFE0C
:100988004420FFF767FE4420FFF764FE9620FFF738
:1009980061FEA020FFF75EFE0020FFF75BFE00204F
:1009A800FFF758FE9620FFF755FEA020FFF752FEEE
:1009B8000020FFF74FFE0020FFF74CFEE320FFF773
:1009C80009FE0020FFF746FE0020FFF743FE222025
:1009D800FFF740FE2220FFF73DFEE420FFF7FAFD77
:1009E8004420FFF737FE4420FFF734FEE520FFF7E9
:1009F800F1FD0C20FFF72EFE9020FFF72BFEB02014
:100A0800FFF728FEA020FFF725FE0E20FFF722FEA5
:100A18009220FFF71FFEB020FFF71CFEA020FFF773
:100A280019FE0820FFF716FE8C20FFF713FEB020F2
:100A3800FFF710FEA020FFF70DFE0A20FFF70AFEC1
:100A48008E20FFF707FEB020FFF704FEA020FFF777
:100A580001FEE620FFF7BEFD0020FFF7FBFD0020AA
:100A6800FFF7F8FD2220FFF7F5FD2220FFF7F2FD42
:100A7800E720FFF7AFFD4420FFF7ECFD4420FFF728
:100A8800E9FDE820FFF7A6FD0D20FFF7E3FD912023
:100A9800FFF7E0FDB020FFF7DDFDA020FFF7DAFD4E
:100AA8000F20FFF7D7FD9320FFF7D4FDB020FFF705
:100AB800D1FDA020FFF7CEFD0920FFF7CBFD8D204B
:100AC800FFF7C8FDB020FFF7C5FDA020FFF7C2FD66
:100AD8000B2001E000000258FFF7BCFD8F20FFF754
:100AE800B9FDB020FFF7B6FDA020FFF7B3FDE92060
:100AF800FFF770FD3620FFF7ADFD0020FFF7AAFDD8
:100B0800EB20FFF767FD0020FFF7A4FD0020FFF7AB
:100B1800A1FDE420FFF79EFDE420FFF79BFD4420A4
:100B2800FFF798FD8820FFF795FD4020FFF792FD1D
:100B3800ED20FFF74FFDC120FFF78CFDA220FFF746
:100B480089FDBF20FFF786FD0F20FFF783FD672093
:100B5800FFF780FD4520FFF77DFDFF20FFF77AFDB9
:100B6800FF20FFF777FDFF20FFF774FDFF20FFF759
:100B780071FD5420FFF76EFD7620FFF76BFDF02026
:100B8800FFF768FDFB20FFF765FD2A20FFF762FDF0
:100B98001C20FFF75FFDEF20FFF71CFD1020FFF77B
:100BA80059FD0D20FFF756FD0420FFF753FD0820DF
:100BB800FFF750FD3F20FFF74DFD1F20FFF74AFDCF
:100BC800FF20FFF707FD7720FFF744FD0120FFF71F
:100BD80041FD0020FFF73EFD0020FFF73BFD1320FD
:100BE800FFF738FDE820FFF7F5FC0020FFF732FD9E
:100BF8000E20FFF72FFDFF20FFF7ECFC7720FFF713
:100C080029FD0120FFF726FD0020FFF723FD002026
:100C1800FFF720FD0020FFF71DFD1120FFF7DAFC8C
:100C2800782000F0FBFAFF20FFF7D4FC7720FFF7CD
:100C380011FD0120FFF70EFD0020FFF70BFD00203E
:100C4800FFF708FD1320FFF705FDE820FFF7C2FCBA
:100C58000020FFF7FFFC0C20FFF7FCFC0A2000F047
:100C6800DDFAE820FFF7B6FC0020FFF7F3FC0020D0
:100C7800FFF7F0FCFF20FFF7ADFC7720FFF7EAFC59
:100C88000120FFF7E7FC0020FFF7E4FC0020FFF756
:100C9800E1FC0020FFF7DEFC3A20FFF79BFC702008
:100CA800FFF7D8FC2920FFF795FC322000F0B6FAB0
:100CB800014803F0B9FD10BDD45100082DE9F041F9
:100CC80088B0002403940494059406940794274B51
:100CD800D3F8E02042F08002C3F8E020D3F8E02007
:100CE80002F080020192019AD3F8E02042F001025A
:100CF800C3F8E020D3F8E03003F001030293029B2D
:100D08001B4D2246B121284600F0F4FE194F224619
:100D18004021384600F0EEFE312303930126049665
:100D280005940223069303A9284600F0D3FD4FF04B
:100D38004008CDF80C800494059403A9284600F0D7
:100D4800C9FD8023039304960594069403A92846B5
:100D580000F0C0FDCDF80C8004960594069403A914
:100D6800384600F0B7FD08B0BDE8F08100440258ED
:100D780000000258001C025810B514464FF6FF73C5
:100D880092B2024803F0FAFA204610BD9000002003
:100D980072B6FEE700B59FB04C2200210BA803F005
:100DA800CDFC2022002103A803F0C8FC022000F09B
:100DB800A7FE00230093394BDA6A22F00102DA62B7
:100DC800DB6A03F001030093354B9A6942F4404211
:100DD8009A619B6903F440430093009B304B9B69E5
:100DE80013F4005FFAD02F4BD3F8F42042F002023C
:100DF800C3F8F420D3F8F43003F002030193019B05
:100E080000230293264B9A6942F440429A619B69F7
:100E180003F440430293214BDA6A42F00102DA629A
:100E2800DB6A03F001030293029B1D4B9B6913F4D9
:100E3800005FFAD001230B934FF480330C93022305
:100E48001493159305221692C0211791189319929D
:100E58001A9308231B9300231C931D930BA800F0DF
:100E680079FEB0B93F23039303230493002305932A
:100E7800082306934023079308934FF4806209924E
:100E88000A93042103A801F0B9FA20B91FB05DF84C
:100E980004FBFFF77DFFFFF77BFF00BF000400584E
:100EA800004802580044025808B500F077F9FFF7E7
:100EB80071FFFFF703FF00F0C1F801221021174866
:100EC80000F018FEFFF706FC642000F0A7F9FF20E9
:100ED800FFF780FB7720FFF7BDFB0120FFF7BAFB88
:100EE8000020FFF7B7FB0020FFF7B4FB1220FFF745
:100EF800B1FBD120FFF76EFB8120FFF7ABFBD220BF
:100F0800FFF768FB0620FFF7A5FB054803F08CFCFC
:100F18004FF47A7000F082F9FAE700BF0000025837
:100F2800D451000882B0074BD3F8F42042F00202F3
:100F3800C3F8F420D3F8F43003F002030193019BC3
:100F480002B0704700440258FEE7FEE7FEE7FEE7FE
:100F5800FEE770477047704708B500F04DF908BDC7
:100F680008B5024802F082FC08BD00BF90000020CE
:100F7800274AD2F8883043F47003C2F88830254BEA
:100F88001B6803F00F03062B06D8224A136823F0C8
:100F98000F0343F0070313601F4B1A6842F0010266
:100FA8001A6000221A6119681C4A0A401A60194B13
:100FB8001B6813F0080F06D0164A136823F00F03B6
:100FC80043F007031360144B00229A61DA611A6236
:100FD800134999621349D962134919635A6399638A
:100FE800DA6319645A64196821F4802119601A6651
:100FF8000E4B1A680E4B1340B3F1005F03D20D4B32
:101008000122C3F808210C4B43F2D2021A60704740
:1010180000ED00E000200052004402587FEDF6EA9F
:10102800000202020000FF01800201010010005CC2
:101038000000FFFF008000510040005208B517482B
:10104800174B03604FF4E133436000238360C360B0
:1010580003610C2242618361C3610362436283625C
:1010680003F059FA70B900210C4803F0CFFA60B9BF
:1010780000210A4803F0EFFA50B9084803F0A7FA2C
:1010880048B908BDFFF784FEEDE7FFF781FEEFE7FB
:10109800FFF77EFEF1E7FFF77BFEF2E79000002006
:1010A8000010014010B5B8B00446002133913491C6
:1010B800359136913791C02202A803F03FFB226890
:1010C8001F4B9A4201D038B010BD01220023CDE950
:1010D800022302A801F02EFC78BB1A4BD3F8F020AB
:1010E80042F01002C3F8F020D3F8F02002F010020A
:1010F8000092009AD3F8E02042F00102C3F8E02001
:10110800D3F8E03003F001030193019B4FF4C0636F
:10111800339302233493002435943694072337936A
:1011280033A9094800F0D6FB22462146252000F0C5
:10113800A1F8252000F0D4F8C5E7FFF729FECCE791
:10114800001001400044025800000258104B1B7860
:101158000BB90120704710B504464FF47A70B0FB04
:10116800F3F30C4A1068B0FBF3F000F0C7F868B965
:101178000F2C01D901200AE0002221464FF0FF3050
:1011880000F078F8044B1C60002000E0012010BD3E
:1011980008000020000000200C00002010B50320EB
:1011A80000F056F801F030F80F498B69C3F30323B8
:1011B8000E4AD35C03F01F03D8408B6903F00F037A
:1011C800D35C03F01F0320FA03F3094A1360094BA9
:1011D80018600F20FFF7BAFF10B10124204610BD98
:1011E8000446FFF79FFEF9E700440258E45100085F
:1011F8000400002000000020034B1B78034A1168FC
:101208000B441360704700BF080000202401002031
:10121800014B1868704700BF2401002038B5044608
:10122800FFF7F6FF0546B4F1FF3F02D0044B1B78E9
:101238001C44FFF7EDFF401BA042FAD338BD00BFA6
:1012480008000020014B1868000C70470010005C73
:101258000649CB6823F4E0631B041B0C000200F46E
:10126800E0600343024A1A43CA60704700ED00E099
:101278000000FA0500B5174BDB68C3F30223C3F17E
:10128800070CBCF1040F28BF4FF0040C03F1040E47
:10129800BEF1060F14D9033B4FF0FF3E0EFA0CFCCB
:1012A80021EA0C0199400EFA03F322EA03031943D9
:1012B800002807DB0901C9B2074B19545DF804FB84
:1012C8000023E9E700F00F000901C9B2034B1954E4
:1012D800F4E700BF00ED00E000E400E014ED00E0FA
:1012E800002807DB00F01F02400901239340024A4F
:1012F80042F82030704700BF00E100E00138B0F14B
:10130800807F0BD24FF0E0235861054AF02182F824
:1013180023100020986107221A6170470120704746
:1013280000ED00E070B50446FFF772FF002C00F0F6
:101338009181054694F83530DBB2022B06D0802324
:101348006365002384F83430012070BD23688C491C
:101358008C4A934218BF8B4230D0183293422DD01A
:10136800183293422AD01832934227D01832934227
:1013780024D01832934221D0183293421ED002F55D
:10138800567293421AD01832934217D018329342A9
:1013980014D01832934211D0183293420ED018321A
:1013A80093420BD01832934208D01832934205D09A
:1013B8001A6822F00E021A60266809E01A6822F0FC
:1013C8001E021A602268536923F08003536126685D
:1013D80023686B496B4A934218BF8B4242D018323C
:1013E80093423FD0183293423CD01832934239D0BE
:1013F8001832934236D01832934233D0183293427F
:1014080030D002F5567293422CD01832934229D02C
:101418001832934226D01832934223D0183293427E
:1014280020D0183293421DD0183293421AD0183265
:10143800934217D0544A934214D01432934211D095
:10144800143293420ED0143293420BD0143293428A
:1014580008D01432934205D01432934202D0143289
:10146800934204D1226E136823F4807313602368B7
:101478004349444A934218BF8B422FD018329342B3
:101488002CD01832934229D01832934226D01832E1
:10149800934223D01832934220D0183293421DD061
:1014A80002F55672934219D01832934216D0183268
:1014B800934213D01832934210D0183293420DD071
:1014C800183293420AD01832934207D01832934206
:1014D80004D01A6822F001021A6003E01A6822F0A8
:1014E80001021A60336813F0010F0ED0FFF790FE67
:1014F800431B052BF6D920236365032384F8353075
:10150800002384F8343001201FE723681C491D4A52
:10151800934218BF8B4239D01832934236D01832D2
:10152800934233D01832934230D0183293422DD0A0
:10153800183293422AD01832934227D002F55672B5
:10154800934223D01832934220D0183293421DD0B0
:10155800183293421AD01832934217D01832934255
:1015680014D01832934211D0183293420ED0A16D84
:10157800E36D03F01F02012393404B600DE000BFB1
:10158800100002402800024008540258A16DE36D83
:1015980003F01F023F2393408B6023682E492F4A94
:1015A800934218BF8B4242D0183293423FD0183230
:1015B80093423CD01832934239D01832934236D0F5
:1015C8001832934233D01832934230D002F5567213
:1015D80093422CD01832934229D01832934226D005
:1015E8001832934223D01832934220D018329342B3
:1015F8001DD0183293421AD01832934217D0184A85
:10160800934214D01432934211D0143293420ED024
:10161800143293420BD01432934208D014329342BE
:1016280005D01432934202D0143293420BD1636E28
:10163800A26E5A60E36E33B11A6822F480721A609F
:10164800236F626F5A60012384F83530002084F8D4
:1016580034007AE6012078E61000024028000240B3
:1016680008540258002800F0298108B5024690F86D
:101678003530DBB2022B03D080234365012008BD3F
:101688000368904890498B4218BF83420CBF0121E0
:10169800002166D03030834263D01830834260D056
:1016A800183083425DD0183083425AD018308342B4
:1016B80057D01830834254D000F55670834250D02A
:1016C800183083424DD0183083424AD018308342B4
:1016D80047D01830834244D01830834241D0183064
:1016E80083423ED0183083423BD0196821F00E0166
:1016F80019601368A0F5956073498B4218BF83423F
:101708006AD072498B4267D018318B4264D0183145
:101718008B4261D018318B425ED018318B425BD03E
:1017280018318B4258D001F556718B4254D018317C
:101738008B4251D018318B424ED018318B424BD04E
:1017480018318B4248D018318B4245D018318B4222
:1017580042D018318B423FD0196821F0010119603D
:101768003EE0042082F8350081BB584A93422DD0D0
:10177800183293422AD01832934227D01832934213
:1017880024D01832934221D0183293421ED002F549
:10179800567293421AD01832934217D01832934295
:1017A80014D01832934211D0183293420ED0183206
:1017B80093420BD01832934208D01832934205D086
:1017C8001A6822F001021A60002058E71A6822F00D
:1017D80001021A60002052E7196821F0010119601E
:1017E8001368384838498B4218BF834242D01831B1
:1017F8008B423FD018318B423CD018318B4239D0C4
:1018080018318B4236D018318B4233D018318B4285
:1018180030D001F556718B422CD018318B4229D02B
:1018280018318B4226D018318B4223D018318B4285
:1018380020D018318B421DD018318B421AD0183164
:101848008B4217D022498B4214D014318B4211D0CD
:1018580014318B420ED014318B420BD014318B4291
:1018680008D014318B4205D014318B4202D0143188
:101878008B4217D1116E0B6823F480730B60906D47
:10188800D36D03F01F0101238B404360536E916EAB
:101898005960D36E33B1196821F480711960136FE0
:1018A800516F5960012382F83530002382F83430B3
:1018B800136D2BB1104698470020E0E601207047D1
:1018C8000020DCE6100002402800024040000240F0
:1018D80008540258F0B583B000236BE085685E00B9
:1018E8000324B44025EA0405CC68B4402C43846042
:1018F800446824EA0C0C4C68C4F300149C4044EA85
:101908000C04446068E0DD08083550F8256003F0F1
:1019180007044FEA840C0F2404FA0CF426EA040E98
:101928000C6904FA0CF444EA0E0440F825406BE014
:10193800092400E0002404FA0EF42C430CF1020CF4
:10194800694D45F82C404FF0B0442568D44325EA4A
:1019580002064F6817F4801F01D042EA05064FF0CF
:10196800B0452E606D6804EA05064F6817F4001F3D
:1019780001D042EA05064FF0B0456E60D5F88450B4
:1019880004EA05064F6817F4003F01D042EA05064D
:101998004FF0B045C5F88460D5F880502C404E68AB
:1019A80016F4803F01D042EA05044FF0B042C2F875
:1019B800804001330A6832FA03F400F092804FF055
:1019C800010C0CFA03FC1CEA0202F2D04C6804F089
:1019D8000304013C012C81D94C6804F00304032C56
:1019E8000CD0C4685D004FF0030C0CFA05FC24EA27
:1019F8000C0C8C68AC4044EA0C04C4604C6804F0DD
:101A08000304022C3FF47FAF04684FEA430E4FF003
:101A1800030C0CFA0EFC24EA0C0C4C6804F00304CA
:101A280004FA0EF444EA0C0404604C6814F4403FD1
:101A3800BFD02E4CD4F8F45045F00205C4F8F45049
:101A4800D4F8F44004F002040194019C4FEA930C8A
:101A58000CF10205244C54F8255003F003044FEA16
:101A6800840E0F2404FA0EF425EA0405204CA04243
:101A78003FF460AF04F58064A04222D004F580648E
:101A8800A04220D004F58064A0421ED004F58064F2
:101A9800A0421CD004F58064A0421AD004F58064EA
:101AA800A04218D004F58064A04216D004F58064E2
:101AB800A04214D004F58064A0423FF439AF0A2450
:101AC80039E7012437E7022435E7032433E7042400
:101AD80031E705242FE706242DE707242BE7082400
:101AE80029E703B0F0BD00BF0004005800440258C5
:101AF800000002580AB1816170470904816170478A
:101B0800134BDB6813F0040F07D1114BDB6803F0AC
:101B1800070383421AD00120704710B50C4AD368D6
:101B280023F007031843D060FFF772FB0446084B05
:101B38005B6813F4005F07D1FFF76AFB001BB0F581
:101B48007A7FF4D9012000E0002010BD0020704702
:101B580000480258002800F0398338B50446036865
:101B680013F0010F25D0944A136903F03803926AE1
:101B7800102B15D0182B0FD06368B3F5803F3FD0DA
:101B8800002B53D18C4B1A6822F480321A601A68E1
:101B980022F480221A6038E002F00302022AEBD114
:101BA800854B1B6813F4003F03D06368002B00F0DB
:101BB8000F83236813F0020F00F0A1807E4A136997
:101BC800926A13F038035AD0182B55D0E368002BCB
:101BD80000F0DE8078490A6822F0190213430B608E
:101BE800FFF716FB0546744B1B6813F0040F40F013
:101BF800AD80FFF70DFB401B0228F4D90320EEE26D
:101C08006D4A136843F48033136063682BB3FFF79E
:101C1800FFFA0546684B1B6813F4003FC9D1FFF76C
:101C2800F7FA401B6428F5D90320D8E2B3F5A02FB2
:101C380009D0614B1A6822F480321A601A6822F4BB
:101C480080221A60E1E75C4B1A6842F480221A602D
:101C58001A6842F480321A60D7E7FFF7D9FA0546C6
:101C6800554B1B6813F4003FA3D0FFF7D1FA401B74
:101C78006428F5D90320B2E212F0030FA6D14E4B27
:101C88001B6813F0040F03D0E368002B00F0A28256
:101C9800494A136823F01903E1680B431360FFF7FF
:101CA800B7FA0546444B1B6813F0040F06D1FFF73B
:101CB800AFFA401B0228F5D9032090E2FFF7C2FAD9
:101CC80041F20303984212D82269402A07D03A49C0
:101CD8004B6823F47C3343EA02334B600FE0364A07
:101CE800536823F47C3343F40033536007E0324AEB
:101CF800536823F0FE43216943EA01635360236874
:101D080013F0100F00F088802B4A136903F0380392
:101D1800926A082B56D0182B50D0E369002B00F09C
:101D2800B880254A136843F080031360FFF770FA00
:101D38000546214B1B6813F4807F40F08880FFF72D
:101D480067FA401B0228F4D9032048E2FFF77AFA21
:101D580041F20303984212D82269402A07D0164953
:101D68004B6823F47C3343EA02334B60C7E7124ADB
:101D7800536823F47C3343F400335360BFE70E4ABF
:101D8800536823F0FE43216943EA01635360B6E7D1
:101D9800094A136823F001031360FFF739FA05466F
:101DA800054B1B6813F0040FA9D0FFF731FA401B4D
:101DB8000228F5D9032012E20044025802F0030277
:101DC800012AAAD1A14B1B6813F4807F03D0E369D1
:101DD800802B40F00182FFF735FA41F20303984265
:101DE80012D8226A202A07D098494B6823F0F84372
:101DF80043EA82634B600FE0944A536823F0F84348
:101E080043F08043536007E0904AD36823F07C5343
:101E1800216A43EA0163D360236813F0080F60D096
:101E28006369002B49D0894A536F43F00103536714
:101E3800FFF7EEF90546854B5B6F13F0020F50D1A3
:101E4800FFF7E6F9401B0228F5D90320C7E1FFF7A1
:101E5800F9F941F20303984212D8226A202A07D0DE
:101E68007A494B6823F0F84343EA82634B60D3E72F
:101E7800764A536823F0F84343F080435360CBE736
:101E8800724AD36823F07C53216A43EA0163D36022
:101E9800C2E76E4A136823F080031360FFF7B8F9AE
:101EA80005466A4B1B6813F4807FB5D0FFF7B0F97D
:101EB800401B0228F5D9032091E1644A536F23F0AF
:101EC80001035367FFF7A4F90546604B5B6F13F0F6
:101ED800020F06D0FFF79CF9401B0228F5D9032012
:101EE8007DE1236813F0200F29D0A3699BB1574ADD
:101EF800136843F480531360FFF78AF90546534B80
:101F08001B6813F4005F1AD1FFF782F9401B0228FF
:101F1800F5D9032063E14D4A136823F48053136015
:101F2800FFF776F90546494B1B6813F4005F06D0A6
:101F3800FFF76EF9401B0228F5D903204FE123680B
:101F480013F0040F21D1636A002B00F047813F4A48
:101F5800126902F03802182A00F0EE80022B79D0BC
:101F68003A4A136823F080731360FFF751F9044667
:101F7800364B1B6813F0007F00F0DC80FFF748F950
:101F8800001B0228F4D9032029E1314A136843F4DD
:101F980080731360FFF73CF905462D4B1B6813F45B
:101FA800807F06D1FFF734F9401B6428F5D9032058
:101FB80015E1A368012B0AD00BBB244B1A6F22F042
:101FC80001021A671A6F22F004021A6704E01F4A16
:101FD800136F43F001031367A36833B3FFF718F9CE
:101FE80005461A4B1B6F13F0020FACD1FFF710F91F
:101FF800401B41F288339842F3D90320EFE0052BC8
:1020080009D0124B1A6F22F001021A671A6F22F0D8
:1020180004021A67E0E70D4B1A6F42F004021A67D0
:102028001A6F42F001021A67D6E7FFF7F1F8054682
:10203800064B1B6F13F0020F85D0FFF7E9F8401B22
:1020480041F288339842F3D90320C8E0004402588B
:1020580000480258694A136823F080731360FFF739
:10206800D7F80546654B1B6813F0007F06D0FFF7CD
:10207800CFF8401B0228F5D90320B0E05F4B996ADE
:102088005F4A0A40A16AE06A41EA00110A439A627B
:10209800226B013AC2F30802616B0139490289B225
:1020A8000A43A16B0139090401F4FE010A43E16BFB
:1020B8000139090601F0FE410A431A63DA6A22F07F
:1020C8000102DA62596B4F4A0A40A16C42EAC10226
:1020D8005A63DA6A22F00C02216C0A43DA62DA6A7D
:1020E80022F00202616C0A43DA62DA6A42F4803250
:1020F800DA62DA6A42F40032DA62DA6A42F4802298
:10210800DA62DA6A42F00102DA621A6842F0807230
:102118001A60FFF77DF80446384B1B6813F0007F00
:1021280006D1FFF775F8001B0228F5D9032056E001
:10213800002054E0002052E0304A916A106B012BD5
:102148004ED001F00303A26A93424BD1C1F30511AB
:10215800E36A994248D1C0F30802236B013B9A42D3
:1021680044D1C0F34622636B013B9A4240D1C0F38D
:102178000642A36B013B9A423CD1C0F30660E36B75
:10218800013B984238D11D4B5B6BC3F3CC03A26C67
:102198009A4201D1002022E0184AD36A23F00103B1
:1021A800D362FFF735F80546FFF732F8A842FBD0AF
:1021B800124A516B134B0B40A16C43EAC1035363A2
:1021C800D36A43F00103D362002008E0012070477E
:1021D800012004E0012002E0012000E0002038BDD9
:1021E8000120FCE70120FAE70120F8E70120F6E7E3
:1021F8000120F4E70120F2E70120F0E7004402584B
:102208000CFCFFFF0700FFFF744B1B6903F038034A
:10221800102B00F0DE80182B10D00BB170487047DF
:102228006E4B1B6813F0200F00F0D5806B4B1868BD
:10223800C0F3C1006B4B23FA00F0704710B4674A33
:10224800916A01F00301946AC4F30510D36A03F09C
:10225800010C536BC3F3CC030CFB03F307EE903A6A
:10226800F8EE677A14F47C7F00F09380012965D03A
:10227800022900F09180E1B107EE100AF8EE476AF2
:102288009FED596A86EE267A544B1B6BC3F30803FD
:1022980006EE903AF8EE666A9FED546A67EE867A23
:1022A80076EEA77AF7EE006A77EEA67A27EE277A17
:1022B80060E0136813F0200F23D011461268C2F3B0
:1022C800C102484BD34007EE103AF8EE476A07EED2
:1022D800100AB8EE476A86EE867A0B6BC3F30803DA
:1022E80006EE903AF8EE666A9FED406A67EE867AE7
:1022F80076EEA77AF7EE006A77EEA67A27EE277AC7
:1023080038E007EE100AF8EE476A9FED396A86EE64
:10231800267A324B1B6BC3F3080306EE903AF8EEAD
:10232800666A9FED326A67EE867A76EEA77AF7EEEE
:10233800006A77EEA67A27EE277A1BE007EE100AE6
:10234800F8EE476A9FED286A86EE267A234B1B6BC8
:10235800C3F3080306EE903AF8EE666A9FED236A27
:1023680067EE867A76EEA77AF7EE006A77EEA67AB7
:1023780027EE277A194B1B6BC3F34623013307EE6D
:10238800903AF8EE677AC7EE276AFCEEE67A17EE1F
:10239800900A5DF8044B704707EE100AF8EE476A9A
:1023A8009FED146A86EE267A0C4B1B6BC3F3080369
:1023B80006EE903AF8EE666A9FED0C6A67EE867A4A
:1023C80076EEA77AF7EE006A77EEA67A27EE277AF6
:1023D800D0E7094870470348704700BF00440258D7
:1023E80000093D000090D0030024744A0000003921
:1023F8000024744C20BCBE4B40787D01002800F0BE
:10240800328170B50D4604469B4B1B6803F00F03E1
:102418008B420BD2984A136823F00F030B431360C7
:10242800136803F00F038B4240F01F81236813F0F9
:10243800040F0CD02269914B9B6903F070039A42F8
:1024480005D98E498B6923F070031A438A61236882
:1024580013F0080F0CD06269884BDB6903F0700336
:102468009A4205D98549CB6923F070031A43CA619A
:10247800236813F0100F0CD0A269804BDB6903F4BA
:10248800E0639A4205D97D49CB6923F4E0631A4396
:10249800CA61236813F0200F0CD0E269774B1B6ADE
:1024A80003F070039A4205D974490B6A23F070034C
:1024B8001A430A62236813F0020F0CD0E2686F4BCC
:1024C8009B6903F00F039A4205D96C498B6923F085
:1024D8000F031A438A61236813F0010F41D0674A3A
:1024E800936923F47063A1680B4393616368022BBB
:1024F8000AD0032B27D0012B2CD0604A126812F087
:10250800040F06D10120ADE0126812F4003F00F07C
:10251800AE805A490A6922F0070213430B61FEF79D
:1025280077FE0646554B1B6903F038036268B3EB28
:10253800C20F16D0FEF76CFE801B41F2883398421A
:10254800F0D903208EE04D4A126812F0007FE0D1E6
:10255800012087E0494A126812F4807FD9D101200E
:1025680080E0236813F0020F0CD0E268434B9B69AC
:1025780003F00F039A4205D240498B6923F00F03F9
:102588001A438A613C4B1B6803F00F03AB420AD91C
:10259800394A136823F00F032B431360136803F0C1
:1025A8000F03AB4265D1236813F0040F0CD02269E6
:1025B800324B9B6903F070039A4205D22F498B690D
:1025C80023F070031A438A61236813F0080F0CD0B4
:1025D80062692A4BDB6903F070039A4205D22749E6
:1025E800CB6923F070031A43CA61236813F0100FF4
:1025F8000CD0A269214BDB6903F4E0639A4205D24F
:102608001E49CB6923F4E0631A43CA61236813F0B7
:10261800200F0CD0E269194B1B6A03F070039A4231
:1026280005D216490B6A23F070031A430A62FFF7B2
:10263800EBFD12498B69C3F30323114AD35C03F002
:102648001F03D8408B6903F00F03D35C03F01F030B
:1026580020FA03F30B4A13600B4B18600B4B1868F6
:10266800FEF774FD70BD012070470120FAE70120D4
:10267800F8E70120F6E700BF0020005200440258A6
:10268800E451000804000020000000200C00002095
:1026980008B5FFF7B9FD0B4A9369C3F303230A4949
:1026A800CB5C03F01F0320FA03F3926902F00F02D8
:1026B800885C00F01F0023FA00F0044A1060044A06
:1026C800136008BD00440258E451000804000020CB
:1026D8000000002008B5FFF7DBFF054BDB69C3F3FB
:1026E8000213044AD35C03F01F03D84008BD00BF9F
:1026F80000440258E451000808B5FFF7C9FF054B2C
:10270800DB69C3F30223044AD35C03F01F03D840F8
:1027180008BD00BF00440258E4510008404B9B6AC2
:1027280003F00303032B79D070B505460E463C4AE7
:10273800136823F080631360FEF76AFD0446384B84
:102748001B6813F0006F06D0FEF762FD031B022B17
:10275800F5D9032070BD324B9A6A22F47C3229687D
:1027680042EA01329A626A68013AC2F30802A96829
:102778000139490289B20A43E9680139090401F4B7
:10278800FE010A4329690139090601F0FE410A439D
:102798009A63DA6A22F0C00269690A43DA62DA6A7D
:1027A80022F02002A9690A43DA62DA6A22F01002EA
:1027B800DA62D96B1B4A0A40E96942EAC102DA6364
:1027C800DA6A42F01002DA62C6B91A46DB6A43F4E2
:1027D8000023D362124A136843F080631360FEF744
:1027E80017FD04460E4B1B6813F0006F14D1FEF75B
:1027F8000FFD001B0228F5D90320ABE7012E05D0F9
:10280800074AD36A43F40013D362E3E7044AD36A5E
:1028180043F48013D362DDE700209BE70120704773
:10282800004402580700FFFF404B9B6A03F0030374
:10283800032B79D070B505460E463C4A136823F041
:1028480080531360FEF7E4FC0446384B1B6813F012
:10285800005F06D0FEF7DCFC031B022BF5D9032032
:1028680070BD324B9A6A22F07C72296842EA0152A2
:102878009A626A68013AC2F30802A96801394902F2
:1028880089B20A43E9680139090401F4FE010A43DF
:1028980029690139090601F0FE410A431A64DA6A16
:1028A80022F4406269690A43DA62DA6A22F4007241
:1028B800A9690A43DA62DA6A22F48072DA62596C28
:1028C8001B4A0A40E96942EAC1025A64DA6A42F4D8
:1028D8008072DA62C6B91A46DB6A43F48003D362AF
:1028E800124A136843F080531360FEF791FC0446C4
:1028F8000E4B1B6813F0005F14D1FEF789FC001B18
:102908000228F5D90320ABE7012E05D0074AD36A80
:1029180043F08073D362E3E7044AD36A43F40003C5
:10292800D362DDE700209BE701207047004402588E
:102938000700FFFFF8B50446036813F0006F30D0B6
:10294800836EB3F5001F26D00ED8EBB1B3F5801F08
:1029580007D102210830FFF7E1FE054645B12E46B2
:1029680021E0012635461EE0B3F5401F09D10025B8
:10297800984A136D23F44013A16E0B431365002688
:1029880011E0012635460EE0924AD36A43F400333B
:10299800D3620025ECE702212830FFF745FF054602
:1029A800DCE700263546236813F4807F14D0A36D36
:1029B800042B32D8DFE803F003232A080800854AED
:1029C800D36A43F40033D36255BB824A136D23F0B4
:1029D8000703A16D0B431365236813F4007F31D0FF
:1029E800E36D802B4CD020D8002B43D0402B19D13D
:1029F800002104F10800FFF791FE05461AE00021C6
:102A080004F10800FFF78AFE0546DDE7002104F11E
:102A18002800FFF709FF0546D6E701263546DBE71C
:102A28002E46D9E7012635460CE0C02B02D0B3F577
:102A3800807F1CD15DBB674A136D23F4E073E16DA1
:102A48000B431365236813F4806F46D0D4F8A8307D
:102A5800B3F5800F39D01FD88BB3B3F5001F18D149
:102A6800002104F10800FFF759FE05461AE0012687
:102A78003546E7E7574AD36A43F40033D362D9E7C8
:102A8800002104F12800FFF7CFFE0546D2E72E46C5
:102A9800D8E70126354620E0B3F5C00F02D0B3F5DC
:102AA800000F09D1C5B94B4A936D23F46003D4F8DC
:102AB800A8100B43936510E0012635460DE0454A02
:102AC800D36A43F40033D362ECE7002104F1280011
:102AD800FFF7AAFE0546E5E72E46236813F4006FC4
:102AE80024D0D4F8AC30B3F1007F42D00ED8002BFC
:102AF80039D0B3F1807F06D1002104F10800FFF737
:102B08000DFE054608E0012635460FE0B3F1407F8B
:102B180002D0B3F1806F23D1002D31D12D4A936DAE
:102B280023F0E063D4F8AC100B439365236813F0EB
:102B3800007F2ED0E36C202B40D026D833B1102B49
:102B480020D1244AD36A43F40033D362002D3CD108
:102B5800204AD36C23F03003E16C0B43D36418E0B4
:102B680001263546E2E71B4AD36A43F40033D362B1
:102B7800D2E7002104F12800FFF756FE0546CBE70F
:102B88002E46D3E70126354603E0302BDED001265A
:102B98003546236813F4805F2DD0236EB3F5005FAC
:102BA8004FD019D8002B46D0B3F5805F0FD1002144
:102BB80004F10800FFF7B2FD054613E0022104F115
:102BC8000800FFF7ABFD0546C0E72E46E1E7012602
:102BD800354610E000440258B3F5405F02D0B3F523
:102BE800804F25D1002D33D1774A136D23F4E0436C
:102BF800216E0B431365236813F4005F38D0636EAE
:102C0800B3F5003F53D028D843B1B3F5803F21D165
:102C1800012104F10800FFF781FD0546002D4DD183
:102C2800694A136D23F4E023616E0B4313651FE0BB
:102C380001263546DFE7644AD36A43F40033D3629A
:102C4800D0E7002104F12800FFF7EEFD0546C9E7AB
:102C58002E46D0E7012635460AE0B3F5802FDDD0B1
:102C6800B3F5A02FDAD0B3F5403FD7D001263546CB
:102C7800236813F4804F31D0D4F8B030B3F1005F3B
:102C880045D020D843B1B3F1805F19D1012104F1B7
:102C98000800FFF743FD0546002D3FD14A4A936DD2
:102CA80023F0E043D4F8B0100B43936516E00121FC
:102CB80004F12800FFF7B8FD0546AFE72E46D7E731
:102CC800012635460AE0B3F1804FE5D0B3F1A04FB5
:102CD800E2D0B3F1405FDFD001263546236813F414
:102CE800004F09D0236FB3F1805F19D0B3F1005FB3
:102CF80024D0D3B101263546236813F0807F33D022
:102D0800A36C032B5BD8DFE803F0272253270121AC
:102D180004F12800FFF788FD0546BDE72E46DDE7EC
:102D2800294AD36A43F40033D36275B9264A136D2E
:102D380023F04053216F0B431365DDE7012104F1B4
:102D48000800FFF7EBFC0546EFE72E46D4E71E4ADE
:102D5800D36A43F40033D362A5BB1B4AD36C23F078
:102D68000303A16C0B43D364236813F4800F2DD1A4
:102D7800236813F0010F00F0A580E36F282B00F201
:102D88009F80DFE803F08D9D9D9D9D9D9D9D879D66
:102D98009D9D9D9D9D9D969D9D9D9D9D9D9D8D9D72
:102DA8009D9D9D9D9D9D8D9D9D9D9D9D9D9D8D0008
:102DB800022104F10800FFF7B1FC0546CCE7012623
:102DC8003546D1E72E46CFE700440258914A1368AA
:102DD80043F480731360FEF71BFA07468D4B1B689C
:102DE80013F4807F05D1FEF713FAC01B6428F5D9C8
:102DF8000325002D4AD1884B1B6FD4F8B4205340CB
:102E080013F4407F0CD0844B1A6F22F44072196F70
:102E180041F480311967196F21F4803119671A67F5
:102E2800D4F8B430B3F5807F15D08DBBD4F8B43066
:102E380003F44072B2F5407F1ED0774A136923F439
:102E48007C53136174490B6FD4F8B420C2F30B029E
:102E580013430B678CE7FEF7DBF907466E4B1B6FD6
:102E680013F0020FE1D1FEF7D3F9C01B41F288330A
:102E78009842F3D90325D8E76748026922F47C52BF
:102E8800664901EA131313430361DBE72E466FE734
:102E98002E466DE7012104F10800FFF73FFC0546C7
:102EA800E5B95D4A536D23F03803E16F0B43536571
:102EB80008E0012104F12800FFF7B6FC0546EFE71A
:102EC80001263546236813F0020F17D0A36F052B90
:102ED80028D8DFE803F00B05200B0B0B2E46F1E793
:102EE800012104F10800FFF719FC0546EDB94A4A2B
:102EF800536D23F00703A16F0B435365236813F049
:102F0800040F23D0D4F89430052B45D8DFE803F01C
:102F1800150F3D151515012104F12800FFF784FC54
:102F28000546E3E701263546E8E72E46E6E70121B0
:102F380004F10800FFF7F2FB054685BB364A936D9E
:102F480023F00703D4F894100B439365236813F018
:102F5800200F34D0D4F89030B3F1005F4ED023D88E
:102F680043B1B3F1805F1CD1002104F10800FFF7E1
:102F7800D5FB0546002D48D1274A536D23F0E04381
:102F8800D4F890100B43536519E0012104F128008F
:102F9800FFF74AFC0546D0E701263546D6E72E4618
:102FA800D4E7012635460AE0B3F1804FE2D0B3F109
:102FB800A04FDFD0B3F1405FDCD00126354623684F
:102FC80013F0400F37D0D4F89C30B3F5006F53D0CE
:102FD80026D843B1B3F5806F19D1002104F1080058
:102FE800FFF79CFB0546002D4DD10B4A936D23F44A
:102FF800E053D4F89C100B4393651CE0022104F1C4
:103008002800FFF711FC0546B4E72E46D7E701264E
:10301800354610E00048025800440258CFFFFF0030
:10302800B3F5805FDFD0B3F5A05FDCD0B3F5406FB8
:10303800D9D001263546236813F0800F33D0D4F851
:10304800A030B3F5804F00F0A38021D843B1B3F589
:10305800005F1AD1002104F10800FFF75FFB054665
:10306800002D40F09C80814A936D23F46043D4F88E
:10307800A0100B43936516E0022104F12800FFF726
:10308800D3FB0546AFE72E46D5E7012635460AE0CD
:10309800B3F5004FE4D0B3F5204FE1D0B3F5C04FFE
:1030A800DED001263546236813F0080F0CD0D4F87B
:1030B8008430B3F5805F74D06C4A536D23F4405369
:1030C800D4F884100B435365236813F0100F0CD009
:1030D800D4F89830B3F5807F6CD0644A936D23F4AC
:1030E8004073D4F898100B439365236813F4002FAA
:1030F8000BD0D4F8A430B3F5803F74D0B3F5003FBB
:1031080067D0002B5FD001263546236813F4802F43
:103118000CD0D4F88830B3F5001F7CD0B3F5401F2D
:103128006FD0B3F5801F67D001263546236813F4A6
:10313800803F08D0236D002B76D0B3F5803F00F098
:10314800818001263546236813F0005F40F08380B4
:10315800236813F4003F00F08E80D4F88030B3F574
:10316800807F00F0EC8040F28380B3F5007F03D0CD
:10317800B3F5407F40F0E180002D40F0E6803B4A07
:10318800536D23F44073D4F880100B43536572E0F9
:10319800022104F12800FFF747FB054660E72E46A9
:1031A80081E7022104F12800FFF73EFB002883D0C5
:1031B800012681E7022104F12800FFF735FB0028EA
:1031C8008BD0012689E7002104F10800FFF7A6FA51
:1031D80005467DB9254A936D23F44033D4F8A410ED
:1031E8000B43936591E7022104F12800FFF71CFBCC
:1031F8000546EEE72E4688E71C4AD36A43F40033B7
:10320800D3627DB9194A536D23F44013D4F888105A
:103218000B4353658AE7012104F12800FFF704FBFB
:103228000546EEE72E4681E7104AD36A43F4003399
:10323800D36275B90D4AD36C23F48033216D0B43E7
:10324800D36480E7022104F10800FFF767FA054616
:10325800EFE72E4677E7022104F12800FFF7E4FAAA
:1032680000283FF475AF012672E700BF00440258FA
:10327800002B81D00126236813F4801F06D04F4A03
:10328800136D23F00043616F0B431365236813F03C
:10329800805F07D0494A136923F48043D4F8B810F3
:1032A8000B431361236813F4001F06D0434A136DC0
:1032B80023F08073E16E0B431365236813F0804F8E
:1032C80009D03E4B1A6922F400421A611A69D4F8EF
:1032D800BC100A431A612368002B06DA374AD36CFC
:1032E80023F04053616D0B43D364236813F4000F3C
:1032F80007D0324A536D23F44003D4F88C100B43A3
:103308005365636813F0010F21D1636813F0020F4E
:1033180026D1636813F0040F2BD1636813F0080FEC
:1033280030D1636813F0100F35D1636813F0200FA4
:103338003AD106B101263046F8BD01269BE71F4A5F
:10334800D36A43F40033D36216E72E4693E700218D
:1033580004F10800FFF7E2F90028D6D00646D4E7C2
:10336800012104F10800FFF7D9F90028D1D0064659
:10337800CFE7022104F10800FFF7D0F90028CCD0EC
:103388000646CAE7002104F12800FFF74DFA002895
:10339800C7D00646C5E7012104F12800FFF744FA23
:1033A8000028C2D00646C0E7022104F12800FFF732
:1033B8003BFA0028BDD00646BBE700BF00440258D0
:1033C80008B5FFF765F9054B1B6AC3F30213044AF6
:1033D800D35C03F01F03D84008BD00BF0044025867
:1033E800E451000810B5774A916A946AC4F3053E1F
:1033F800D36AC3F3001CD36BC3F3CC030CFB03F3F6
:1034080014F47C3F00F0D88001F0030107EE903AF5
:10341800F8EE677A012965D0022900F0B080E1B1A1
:1034280007EE10EAB8EE477A9FED676AC6EE076ABC
:10343800644B9B6BC3F3080307EE103AB8EE477A68
:103448009FED626A67EE867A77EE277AB7EE007AA2
:1034580077EE877A66EEA76A60E0136813F0200FAC
:1034680023D011461268C2F3C102594BD34007EE6C
:10347800103AB8EE477A06EE90EAB8EE666AC7EEFA
:10348800066A8B6BC3F3080307EE103AB8EE477A67
:103498009FED4E6A67EE867A77EE277AB7EE007A66
:1034A80077EE877A66EEA76A38E007EE10EAB8EE9C
:1034B800477A9FED486AC6EE076A424B9B6BC3F397
:1034C800080307EE103AB8EE477A9FED406A67EEB8
:1034D800867A77EE277AB7EE007A77EE877A66EE05
:1034E800A76A1BE007EE10EAB8EE477A9FED366A46
:1034F800C6EE076A334B9B6BC3F3080307EE103A1B
:10350800B8EE477A9FED316A67EE867A77EE277ACA
:10351800B7EE007A77EE877A66EEA76A294A936B48
:10352800C3F3462307EE103AB8EE477AB7EE006ABF
:1035380037EE067AC6EE877AFCEEE77AC0ED007AB7
:10354800936BC3F3064307EE103AB8EE477A37EEAB
:10355800067AC6EE877AFCEEE77AC0ED017A936BBD
:10356800C3F3066307EE903AF8EE677A77EE867A49
:1035780086EEA77ABCEEC77A80ED027A10BD07EE18
:1035880010EAB8EE477A9FED146AC6EE076A0D4B4B
:103598009B6BC3F3080307EE103AB8EE477A9FED2A
:1035A8000B6A67EE867A77EE277AB7EE007A77EEBF
:1035B800877A66EEA76AB1E70023036043608360F9
:1035C800DCE700BF004402580024744A00000039B8
:1035D8000090D0030024744C20BCBE4B10B5774A31
:1035E800916A946AC4F3055ED36AC3F3002C536CE2
:1035F800C3F3CC030CFB03F314F07C7F00F0D880FA
:1036080001F0030107EE903AF8EE677A012965D0D8
:10361800022900F0B080E1B107EE10EAB8EE477A6F
:103628009FED676AC6EE076A644B1B6CC3F3080319
:1036380007EE103AB8EE477A9FED626A67EE867A2F
:1036480077EE277AB7EE007A77EE877A66EEA76A82
:1036580060E0136813F0200F23D011461268C2F3FC
:10366800C102594BD34007EE103AB8EE477A06EE3E
:1036780090EAB8EE666AC7EE066A0B6CC3F30803F5
:1036880007EE103AB8EE477A9FED4E6A67EE867AF3
:1036980077EE277AB7EE007A77EE877A66EEA76A32
:1036A80038E007EE10EAB8EE477A9FED486AC6EEB2
:1036B800076A424B1B6CC3F3080307EE103AB8EED7
:1036C800477A9FED406A67EE867A77EE277AB7EEFB
:1036D800007A77EE877A66EEA76A1BE007EE10EAB3
:1036E800B8EE477A9FED366AC6EE076A334B1B6C15
:1036F800C3F3080307EE103AB8EE477A9FED316A34
:1037080067EE867A77EE277AB7EE007A77EE877AD1
:1037180066EEA76A294A136CC3F3462307EE103AEC
:10372800B8EE477AB7EE006A37EE067AC6EE877AC1
:10373800FCEEE77AC0ED007A136CC3F3064307EE9C
:10374800103AB8EE477A37EE067AC6EE877AFCEE7C
:10375800E77AC0ED017A136CC3F3066307EE903A7B
:10376800F8EE677A77EE867A86EEA77ABCEEC77AA5
:1037780080ED027A10BD07EE10EAB8EE477A9FEDA9
:10378800146AC6EE076A0D4B1B6CC3F3080307EEF9
:10379800103AB8EE477A9FED0B6A67EE867A77EEB5
:1037A800277AB7EE007A77EE877A66EEA76AB1E7EE
:1037B8000023036043608360DCE700BF00440258D5
:1037C8000024744A000000390090D0030024744C8F
:1037D80020BCBE4B026852E8003F23F4907342E8D5
:1037E80000310029F6D1026802F1080353E8001FEE
:1037F8000D4B0B40083242E800310029F3D1C36E6B
:10380800012B06D02023C0F88C300023C366436701
:103818007047026852E8003F23F0100342E8003185
:103828000029F6D1EEE700BFFEFFFFEF704708B5AD
:10383800026852E8003F23F0400342E800310029C3
:10384800F6D12023C0F8883000238367FFF7EEFF06
:1038580008BD704708B5806B0023A0F85E30A0F85B
:103868005630FFF7F6FF08BD7047000070B50446F4
:103878000168CB6908688D6840F60F021A4008D1C4
:1038880013F0200F05D010F0200F34D115F0805F11
:1038980031D12AB18B4A2A4033D18B4E304230D1B4
:1038A800E26E012A00F0C68013F4801F03D015F4DD
:1038B800800F40F09B8113F0800F07D010F0800F2D
:1038C80040F09B8115F4000F40F0978113F0400FF2
:1038D80003D010F0400F40F0978113F4000F03D08D
:1038E80010F0804F40F0948113F0807F02D00028C0
:1038F800C0F2928170BD636F002BFBD020469847C1
:10390800F8E713F0010F09D010F4807F06D00126E4
:103918000E62D4F890103143C4F8901013F0020FDF
:103928000BD015F0010F08D0216802260E62D4F8DA
:10393800901041F00401C4F8901013F0040F0BD05C
:1039480015F0010F08D0216804260E62D4F89010F3
:1039580041F00201C4F8901013F0080F0BD010F0DA
:10396800200F00D13AB1226808211162D4F89020C2
:103978000A43C4F8902013F4006F0CD010F0806F45
:1039880009D022684FF400611162D4F8902042F007
:103998002002C4F89020D4F89020002AAAD013F06E
:1039A800200F09D010F0200F02D115F0805F03D04E
:1039B800636F0BB120469847D4F8902023689B6822
:1039C80013F0400F02D112F0280F2CD02046FFF739
:1039D80001FF23689B6813F0400F20D0226802F192
:1039E800080353E8003F23F04003083242E800315F
:1039F8000029F3D1D4F880306BB1344A1A65D4F871
:103A08008000FDF72FFE00283FF474AFD4F8800043
:103A1800036D98476EE72046FFF71BFF6AE72046CD
:103A2800FFF717FF66E72046FFF713FF0023C4F8E8
:103A380090305FE713F0100F3FF436AF10F0100F1F
:103A48003FF432AF10230B6223689B6813F0400FDA
:103A580000F09280D4F8802013681D481D498B42DD
:103A680018BF834238D018318B4235D018318B4279
:103A780032D018318B422FD018318B422CD01831CC
:103A88008B4229D018318B4226D001F556718B42D2
:103A980022D018318B421FD018318B421CD01831DC
:103AA8008B4219D018318B4216D018318B4213D063
:103AB80018318B4210D018318B420DD05B689BB205
:103AC8000CE000BF01000010200100045D38000870
:103AD80010000240280002405B689BB2002B3FF4B4
:103AE80009AFB4F85C1099427FF604AFA4F85E30D1
:103AF800D369B3F5807F32D0226852E8003F23F4BF
:103B0800807342E800310029F6D1226802F10803E7
:103B180053E8003F23F00103083242E8003100294E
:103B2800F3D1226802F1080353E8003F23F0400371
:103B3800083242E800310029F3D12023C4F88C3040
:103B48000023E366226852E8003F23F0100342E8AE
:103B580000310029F6D1D4F88000FDF7E3FB0223F9
:103B68002367B4F85C10B4F85E309BB2C91A89B206
:103B78002046FFF779FEBDE6B4F85C10B4F85E3075
:103B88009BB2C91A89B2B4F85E309BB2002B3FF4DD
:103B9800B1AE00293FF4AEAE226852E8003F23F4EC
:103BA800907342E800300028F6D1226802F1080339
:103BB80053E8000F1A4B0340083242E8003000284F
:103BC800F3D12023C4F88C300023E36663672268AE
:103BD80052E8003F23F0100342E800300028F6D1F5
:103BE800022323672046FFF73FFE83E64FF4801346
:103BF8000B62204600F0E8FC7CE6A36F002B3FF444
:103C080079AE2046984775E62046FFF710FE71E624
:103C1800204600F0DBFC6DE6204600F0D6FC69E6A5
:103C2800FEFFFFEF70B586B004460168836802693D
:103C3800134342691343C26913430868884A024020
:103C480013430B602268536823F44053E1680B4325
:103C58005360A1692268834B9A4201D0236A1943B1
:103C68009068814B03400B4393602268D36A23F02A
:103C78000F03616A0B43D36222687C4B9A4221D0BE
:103C88007B4B9A4200F08C807A4B9A4200F0A280DB
:103C9800794B9A4200F0B580784B9A4200F0C88080
:103CA800774B9A4200F0F480764B9A4200F01981E3
:103CB800754B9A4200F02C816A4B9A4200F03F8182
:103CC800802333E0714B5B6D03F03803282B65D8F4
:103CD800DFE813F0290064006400640064006400F5
:103CE800640064004D0164006400640064006400C2
:103CF800640064002B0064006400640064006400D5
:103D0800640064005E006400640064006400640091
:103D1800640064006000640064006400640064007F
:103D2800640064006200012300E008234D498A42D0
:103D380000F02F81E069B0F5004F00F0AF81202B33
:103D480000F20782202B00F25182DFE813F01E02F6
:103D580024024F024F0227024F024F024F022C0249
:103D68004F024F024F024F024F024F024F023102E1
:103D78004F024F024F024F024F024F024F024F02B3
:103D88004F024F024F024F024F024F024F023D02B5
:103D98001023CBE72023C9E74023C7E78023C5E7E3
:103DA8003A4B5B6D03F00703052B11D8DFE813F0DE
:103DB8000600E10008000A000C000E000023B5E729
:103DC8000823B3E71023B1E72023AFE74023ADE78B
:103DD8008023ABE72D4B5B6D03F00703052B0ED853
:103DE800DFE803F003C90507090B00239EE7082352
:103DF8009CE710239AE7202398E7402396E780233F
:103E080094E7224B5B6D03F00703052B0ED8DFE820
:103E180003F003B40507090B002387E7082385E7A8
:103E2800102383E7202381E740237FE780237DE772
:103E3800164B5B6D03F00703052B0ED8DFE803F084
:103E4800039F0507090B002370E708236EE710237B
:103E58006CE720236AE7402368E7802366E700BF12
:103E6800F369FFCF000C0058FFF4FF110010014068
:103E78000044004000480040004C00400050004012
:103E88000014014000780040007C004000440258C3
:103E98007D4B5B6D03F03803282B20D8DFE803F057
:103EA800151F1F1F1F1F1F1F711F1F1F1F1F1F1FD2
:103EB800171F1F1F1F1F1F1F191F1F1F1F1F1F1F18
:103EC8001B1F1F1F1F1F1F1F1D0001232EE7082375
:103ED8002CE710232AE7202328E7402326E780231E
:103EE80024E7694B5B6D03F00703052B0ED8DFE869
:103EF80003F0034A0507090B002317E7082315E712
:103F0800102313E7202311E740230FE780230DE751
:103F18005D4B5B6D03F00703052B0ED8DFE803F05C
:103F280003350507090B002300E70823FEE61023E5
:103F3800FCE62023FAE64023F8E68023F6E603F5BC
:103F48000E339B6D03F00703052B0ED8DFE803F053
:103F5800031F0507090B0223E8E60823E6E61023FA
:103F6800E4E62023E2E64023E0E68023DEE60423BD
:103F7800DCE60423DAE60423D8E60423D6E60423A1
:103F8800D4E60423D2E60423D0E60423CEE60423B1
:103F9800CCE6202B27D8022BC0F01A81023B1E2B1F
:103FA80000F21881DFE813F05000160156001601E0
:103FB800160116015B0016011601160116011601FD
:103FC80016011601600016011601160116011601E8
:103FD8001601160116011601160116011601160121
:103FE800160116016C00402B2CD14FF40040626A78
:103FF800264B33F81220B0FBF2F3656805EB450158
:10400800994200F2E980B3EB053F00F2E780002611
:1040180033463146FCF75CF9090241EA10610002B7
:104028006B08C0182A46334641F10001FCF750F9E5
:10403800A0F54072164B9A4200F2D2802368D860ED
:104048003046D4E00120D2E0FFF7BAF90028CED1FB
:104058000020CCE003A8FFF7C5F90498F6E7684606
:10406800FFF7BCFA0198F1E7074B1B6813F0200F24
:1040780008D0054B1B68C3F3C1030648D840E5E7E1
:104088000548B4E70348B2E700440258F451000871
:10409800FFFC0F000090D00300093D00202B15D82D
:1040A800202B00F29F80DFE803F031379D9D3A9D79
:1040B8009D9D3F9D9D9D9D9D9D9D449D9D9D9D9DDF
:1040C8009D9D9D9D9D9D9D9D9D9D5000402B1BD11F
:1040D800626A4D4B33F81230B0FBF3F06268530854
:1040E80003EB4000B0FBF2F0A0F110024FF6EF73C3
:1040F8009A4279D883B223F00F03C0F342001843E1
:104108002368D860002072E0012070E0FEF7E2FA30
:104118000028DDD100206AE0FEF7EEFAF8E703A8F0
:10412800FFF760F90498F3E76846FFF757FA019834
:10413800EEE7364B1B6813F0200F08D0334B1B6893
:10414800C3F3C1033248D840E2E73248C0E73048F9
:10415800BEE7402B17D14FF40040626A2A4B33F870
:104168001230B0FBF3F0636800EB5300B0FBF3F0E0
:10417800A0F110024FF6EF739A4242D8236880B23A
:10418800D860002033E0012031E0FEF7A3FA0028D0
:10419800E3D100202BE0FEF7AFFAF8E703A8FFF71A
:1041A80021F90498F3E76846FFF718FA0198EEE753
:1041B800164B1B6813F0200F08D0144B1B68C3F371
:1041C800C1031348D840E2E71248C6E71048C4E7DD
:1041D80001200CE001200AE0012008E0012006E0AF
:1041E800012004E0012002E0012000E00120012379
:1041F800A4F86A30A4F8683000236367A36706B0A0
:1042080070BD0120F3E700BFF451000800440258D4
:104218000090D00300093D00836A13F0010F06D017
:104228000268536823F40033C16A0B435360836AFE
:1042380013F0020F06D00268536823F48033016B31
:104248000B435360836A13F0040F06D00268536867
:1042580023F48023416B0B435360836A13F0080FE8
:1042680006D00268536823F40043816B0B43536004
:10427800836A13F0100F06D00268936823F4805302
:10428800C16B0B439360836A13F0200F06D002685A
:10429800936823F40053016C0B439360836A13F013
:1042A800400F0AD00268536823F48013416C0B4313
:1042B8005360436CB3F5801F0BD0836A13F0800FF3
:1042C80006D00268536823F40023C16C0B43536083
:1042D80070470268536823F4C003816C0B43536032
:1042E800EBE72DE9F84305460F4616469946DDF8F3
:1042F80020802C68E46937EA04030CBF4FF0010CF6
:104308004FF0000CB44532D1B8F1FF3FF1D0FCF7C3
:104318007FFFA0EB090040452CD8B8F1000F2BD047
:104328002B681A6812F0040FE3D0DA6912F0080F4C
:1043380011D1DA6912F4006FDBD04FF400621A620F
:104348002846FFF747FA2023C5F89030002385F860
:10435800843003200CE008241C622846FFF73AFA50
:10436800C5F89040002385F88430012000E0002043
:10437800BDE8F8830320FBE70320F9E72DE9F041C6
:1043880082B01E46D0F88830202B5BD104460D46FB
:104398009046002A18BF002901D1012053E00023CC
:1043A800C0F890302123C0F88830FCF731FF074669
:1043B800A4F85480A4F85680A368B3F5805F02D0AF
:1043C8004FF0000816E0236943B34FF0000811E0EE
:1043D8002023C4F88830032035E038F8023B2268EF
:1043E800C3F308039362B4F8562092B2013A92B22A
:1043F800A4F85620B4F856309BB293B100963B46C9
:10440800002280212046FFF76CFF0028E0D1002D14
:10441800E3D015F8012B23689A62E4E7A846002543
:10442800E8E700963B46002240212046FFF759FF67
:1044380018B92023C4F8883005E02023C4F8883050
:10444800032000E0022002B0BDE8F08130B583B05F
:1044580004460023C0F89030FCF7DAFE05462268CF
:10446800126812F0080F10D123681B6813F0040FAC
:1044780028D12023C4F88830C4F88C300020E066A6
:10448800206784F8840003B030BD6FF07E4300934A
:10449800034600224FF400112046FFF722FF0028B0
:1044A800E2D0226852E8003F23F0800342E800315E
:1044B8000029F6D12023C4F88830002384F88430FA
:1044C8000320E0E76FF07E4300932B4600224FF471
:1044D80080012046FFF705FF0028CAD0226852E86D
:1044E800003F23F4907342E800310029F6D1226896
:1044F80002F1080353E8003F23F00103083242E8C1
:1045080000310029F3D12023C4F88C30002384F82B
:1045180084300320B7E778B310B50446D0F8883064
:104528000BB32423C4F888302268136823F00103EE
:1045380013602046FFF776FB012813D0A36ABBB9A6
:104548002268536823F4904353602268936823F0E9
:104558002A0393602268136843F00103136020461E
:10456800FFF774FF10BD80F88430FCF79BFDD8E797
:104578002046FFF751FEE3E701207047436E2BB951
:104588000123A0F86A30A0F86830704730B4036897
:104598009A68C2F342629968490F094D6B5C1B0126
:1045A800084C615C93FBF1F3A0F86A30AB5C1B012B
:1045B800A25C93FBF2F3A0F8683030BC704700BFF0
:1045C800145200080C52000870477047704790F862
:1045D8008430012B18D0012380F884302423C0F8BC
:1045E800883003681A68196821F00101196022F0FF
:1045F80000520023436601680A602022C0F8882020
:1046080080F88430184670470220704738B590F813
:104618008430012B1DD00446012380F884302423E4
:10462800C0F8883003681D681A6822F001021A6011
:104638000268936823F0604319439160FFF79EFF77
:1046480023681D602023C4F88830002084F8840083
:1046580038BD0220FCE738B590F88430012B1DD016
:104668000446012380F884302423C0F88830036886
:104678001D681A6822F001021A600268936823F024
:10468800606319439160FFF779FF23681D60202359
:10469800C4F88830002084F8840038BD0220FCE784
:1046A800DFF834D0FCF764FC0C480D490D4A0023B0
:1046B80002E0D458C4500433C4188C42F9D30A4ACF
:1046C8000A4C002301E013600432A242FBD300F03D
:1046D80011F8FCF7E9FB70470000022000000020F9
:1046E8007400002090520008740000203C01002053
:1046F800FEE7000070B50D4D0D4C641BA41000269C
:10470800A64209D10B4D0C4C00F054FD641BA410BB
:104718000026A64205D170BD55F8043B98470136DE
:10472800EEE755F8043B98470136F2E7885200084F
:1047380088520008885200088C5200080244034638
:10474800934200D1704703F8011BF9E770B50E4694
:10475800054618B183690BB900F048FAAB69AC6833
:1047680013B9284600F042FA2C4B9C4220D16C68C1
:10477800636EDB0705D4A389980502D4A06D00F009
:10478800D3FAA38919071DD52369DBB1013EA368B4
:1047980016F8011F013BA36039BB002B38DA22460B
:1047A8000A21284600F048F8013011D00A2511E006
:1047B8001B4B9C4201D1AC68DAE71A4B9C4208BFFC
:1047C800EC68D5E72146284600F088F80028DDD0B7
:1047D8004FF0FF35636EDA0705D4A3899B0502D431
:1047E800A06D00F0A2FA284670BD002B04DAA26979
:1047F8009A4206DC0A2904D023685A1C22601970E0
:10480800C5E72246284600F017F80130BFD1DFE798
:1048180023680A255A1C22601D70DBE740520008F5
:104828006052000820520008024B01461868FFF742
:104838008DBF00BF10000020F8B50E46144605468F
:1048480018B183690BB900F0D1F9214B9C422BD1E7
:104858006C68A369A360A3891A072FD523696BB372
:1048680023692068C01A6369F6B28342374604DCBC
:104878002146284600F026F930BBA368013BA36017
:1048880023685A1C22601E7063690130834204D079
:10489800A389DB0706D50A2E04D12146284600F055
:1048A80011F988B93846F8BD0A4B9C4201D1AC6869
:1048B800CFE7094B9C4208BFEC68CAE72146284667
:1048C80000F00CF80028CBD04FF0FF37EAE700BF24
:1048D800405200086052000820520008324B70B560
:1048E8001D6806460C4625B1AB6913B9284600F089
:1048F8007DF92E4B9C420FD16C68A389B4F90C202A
:1049080019072CD4DD0611D40923336042F0400383
:10491800A3814FF0FF303EE0254B9C4201D1AC68AB
:10492800EBE7244B9C4208BFEC68E6E7580712D532
:10493800616B41B104F14403994202D0304600F062
:104948005BFA00236363A38923F02403A381002374
:10495800636023692360A38943F00803A381236963
:104968004BB9A38903F42073B3F5007F03D0214624
:10497800304600F001FAA089B4F90C2010F00103C8
:104988000AD00023A36063695B42A361236943B92A
:1049980010F08000BAD170BD810758BF6369A36069
:1049A800F4E70020F7E700BF10000020405200089D
:1049B80060520008205200088A892DE9F041054616
:1049C80010070C4658D44B68002B05DC0B6C002BE9
:1049D80002DC0020BDE8F081E66A002EF9D0002351
:1049E80012F480522F682B6032D0606DA3895A0769
:1049F80005D56368C01A636B0BB1236CC01A00231A
:104A08000246E66A216A2846B047431CA38906D1B4
:104A180029681D292CD82A4ACA40D60728D5002239
:104A28006260D9042269226004D5421C01D12B6836
:104A380003B96065616B2F600029CAD004F1440393
:104A4800994202D0284600F0D7F900206063C1E7F8
:104A5800216A01232846B047411CC7D12B68002B87
:104A6800C4D01D2B01D0162B01D12F60B1E7A3892B
:104A780043F04003A381ADE70F69002FA9D0930746
:104A88000E6808BF4B690F6018BF0023A6EB070824
:104A98008B60B8F1000F9CDD216AA66A43463A464E
:104AA8002846B047002806DCA38943F04003A381C9
:104AB8004FF0FF308EE70744A8EB0008E9E700BF96
:104AC8000100402038B50B6905460C4613B900258E
:104AD800284638BD18B183690BB900F087F8144B24
:104AE8009C421BD16C68B4F90C30002BEFD0626E7D
:104AF800D00704D4990502D4A06D00F015F9284612
:104B08002146FFF759FF636EDA070546E0D4A3890B
:104B18009B05DDD4A06D00F008F9D9E7054B9C4250
:104B280001D1AC68DFE7044B9C4208BFEC68DAE7C8
:104B3800405200086052000820520008002310B5B7
:104B48000446C0E90033C0E90433836081814366C9
:104B5800C2818361194608225C30FFF7EFFD054BDF
:104B68006362054BA362054BE362054B2462236332
:104B780010BD00BFE14F0008035000083B5000087B
:104B88005F500008014900F0AFB800BFCD4A0008E7
:104B980070B568224D1E55430E4605F1740100F0AC
:104BA80097F9044640B10021C0E900160C30A06016
:104BB80005F16802FFF7C2FD204670BD014800F00C
:104BC800B3B800BF29010020014800F0AEB800BF0B
:104BD80029010020014800F0A7B800BF2A010020E1
:104BE800014800F0A2B800BF2A01002010B5044611
:104BF800FFF7F0FFA3691BB1BDE81040FFF7F0BF56
:104C0800C4E912332365134B134A1B68A262A342FB
:104C180004BF0123A361204600F020F8606020460D
:104C280000F01CF8A060204600F018F80022E060B0
:104C380004216068FFF782FFA06801220921FFF7BD
:104C48007DFFE06802221221FFF778FF0123A361AC
:104C5800D2E700BF1C5200088D4B0008F8B5074684
:104C6800FFF7ACFF1E4B1E68B36913B93046FFF758
:104C7800BDFF4836D6E90134013B03D533680BB391
:104C88003668F7E7B4F90C50D5B9164BE36004F170
:104C98005800656600F047F8FFF796FFC4E901552C
:104CA800C4E904552560A5610822294604F15C0081
:104CB800FFF744FDC4E90D55C4E912552046F8BD77
:104CC8006834D9E704213846FFF762FF04463060AC
:104CD8000028D5D1FFF778FF0C233B60EEE700BF33
:104CE8001C5200080100FFFF2DE9F84306468846DC
:104CF80000F148040027D4E90195B9F1010905D567
:104D08002468002CF7D13846BDE8F883AB89012B1D
:104D180007D9B5F90E30013303D029463046C047CC
:104D280007436835E9E770477047704770B50E4626
:104D3800B1F90E10002996B014461D4608DAB6F9E6
:104D48000C3000222A601A0610D44FF480630EE05B
:104D58006A4600F0A7F90028F1DB019A02F47042D4
:104D6800A2F500535A425A412A60EEE74023002038
:104D7800236016B070BD00008B8973B59D07064689
:104D88000C4607D504F147032360236101236361BF
:104D980002B070BD01AB6A46FFF7C8FF009905462F
:104DA800304600F095F848B9B4F90C309A05EFD4BC
:104DB80023F0030343F00203A381E3E70D4BB3623F
:104DC800A389206043F08003A381009B6361019B5A
:104DD80020615BB1B4F90E10304600F075F928B1C6
:104DE800A38923F0030343F00103A381A0890543AA
:104DF800A581CDE78D4B000837B5002944D051F87F
:104E0800043C0190002BA1F10404B8BFE41800F0A1
:104E18007DF91E4A0198136833B96360146003B0C2
:104E2800BDE8304000F078B9A34208D92568611977
:104E38008B4201BF19685B6849192160EDE71A4682
:104E48005B680BB1A342FAD911685518A5420BD17A
:104E5800246821445418A3421160E0D11C685B689F
:104E6800536021441160DAE702D90C230360D6E7C6
:104E7800256861198B4204BF19685B68636004BFC9
:104E8800491921605460CAE703B030BD2C010020E5
:104E980070B50E4E0C463168054611B900F08CF815
:104EA80030602146284600F087F8431C0AD0C41C0D
:104EB80024F00304A04207D0211A284600F07CF809
:104EC800013001D14FF0FF34204670BD3001002081
:104ED8002DE9F041CD1C25F0030508350C2D38BF10
:104EE8000C25002D074601DBA94205D90C233B60A0
:104EF80000263046BDE8F0812E4E00F007F93368F1
:104F08001C4634BB29463846FFF7C2FF431C0446FB
:104F18004DD134682646002E40D1236831463846A4
:104F280004EB030800F048F880453AD121680335BE
:104F38006D1A25F0030508350C2D38BF0C252946B8
:104F48003846FFF7A5FF01302BD023682B44236098
:104F58000EE02268521B1ED40B2A16D96119A342EF
:104F6800256018BF5960636808BF316062514B60A3
:104F7800384604F10B0600F0CFF826F00706231D8B
:104F8800F21AB6D09B1BA350B3E76268A3420CBFCA
:104F980032605A60ECE723466468B2E734467668C4
:104FA800B9E70C233B60384600F0B6F8A1E7256066
:104FB800DEE700BF2C01002038B5064D002304466B
:104FC80008462B6000F0E8F8431C02D12B6803B1B7
:104FD800236038BD3401002010B50C46B1F90E101D
:104FE80000F0A0F80028ABBF636DA3891B1823F459
:104FF8008053ACBF6365A38110BD2DE9F0411F4606
:105008008B89DB0505460C46164605D5B1F90E1009
:105018000223002200F068F8A389B4F90E1023F4E3
:105028008053A38132463B462846BDE8F04100F054
:1050380017B810B50C46B1F90E1000F055F8431C1E
:10504800A38915BF606523F4805343F48053A3817B
:1050580018BFA38110BDB1F90E1000F013B80000FD
:1050680038B5074D04460846114600222A601A46FC
:10507800FBF782FE431C02D12B6803B1236038BDC5
:105088003401002038B5064D0023044608462B603D
:1050980000F05AF8431C02D12B6803B1236038BDD5
:1050A8003401002038B5074D002304460846114650
:1050B8002B6000F051F8431C02D12B6803B1236028
:1050C80038BD00BF3401002038B5064D0023044622
:1050D80008462B6000F048F8431C02D12B6803B146
:1050E800236038BD3401002038B5074D0446084612
:1050F800114600222A601A4600F03EF8431C02D1ED
:105108002B6803B1236038BD340100200148FFF744
:105118000BBE00BF280100200148FFF706BE00BFF4
:105128002801002038B5074D0446084611460022DC
:105138002A601A4600F028F8431C02D12B6803B1F4
:10514800236038BD34010020024B58221A604FF00A
:10515800FF30704734010020024B58221A604FF08C
:10516800FF30704734010020024B58221A6000209B
:10517800704700BF34010020024B58221A604FF0DC
:10518800FF30704734010020024B58221A604FF05C
:10519800FF30704734010020044A05491368002B8A
:1051A80008BF0B46184410601846704738010020A5
:1051B80040010020F8B500BFF8BC08BC9E46704707
:0C51C800F8B500BFF8BC08BC9E4670475C
:1051D4004C434420696E697420646F6E650000005E
:1051E4000000000001020304010203040607080989
:1051F400010002000400060008000A000C00100070
:10520400200040008000000108040204080101019C
:105214000101010307010000140000200000000048
:10522400000000000000000000000000000000007A
:10523400000000000000000000000000000000006A
:10524400000000000000000000000000000000005A
:10525400000000000000000000000000000000004A
:10526400000000000000000000000000000000003A
:0C5274000000000000000000000000002E
:0852800088B0FF7F010000006F
:04528800BD0200085B
:04528C00990200087B
:105290000090D0030090D003010000001000000037
:1052A0001400002000000000405200086052000876
:1052B0002052000800000000000000000000000074
:1052C00000000000000000000000000000000000DE
:1052D00000000000000000000000000000000000CE
:1052E00000000000000000000000000000000000BE
:1052F00000000000000000000000000000000000AE
:0453000000000000A9
:04000005080046A900
:00000001FF
